{
  "_format": "hh-sol-artifact-1",
  "contractName": "Color",
  "sourceName": "contracts/Color.sol",
  "abi": [
    {
      "inputs": [],
      "stateMutability": "nonpayable",
      "type": "constructor"
    },
    {
      "anonymous": false,
      "inputs": [
        {
          "indexed": true,
          "internalType": "address",
          "name": "owner",
          "type": "address"
        },
        {
          "indexed": true,
          "internalType": "address",
          "name": "approved",
          "type": "address"
        },
        {
          "indexed": true,
          "internalType": "uint256",
          "name": "tokenId",
          "type": "uint256"
        }
      ],
      "name": "Approval",
      "type": "event"
    },
    {
      "anonymous": false,
      "inputs": [
        {
          "indexed": true,
          "internalType": "address",
          "name": "owner",
          "type": "address"
        },
        {
          "indexed": true,
          "internalType": "address",
          "name": "operator",
          "type": "address"
        },
        {
          "indexed": false,
          "internalType": "bool",
          "name": "approved",
          "type": "bool"
        }
      ],
      "name": "ApprovalForAll",
      "type": "event"
    },
    {
      "anonymous": false,
      "inputs": [
        {
          "indexed": false,
          "internalType": "address",
          "name": "account",
          "type": "address"
        }
      ],
      "name": "Paused",
      "type": "event"
    },
    {
      "anonymous": false,
      "inputs": [
        {
          "indexed": true,
          "internalType": "bytes32",
          "name": "role",
          "type": "bytes32"
        },
        {
          "indexed": true,
          "internalType": "bytes32",
          "name": "previousAdminRole",
          "type": "bytes32"
        },
        {
          "indexed": true,
          "internalType": "bytes32",
          "name": "newAdminRole",
          "type": "bytes32"
        }
      ],
      "name": "RoleAdminChanged",
      "type": "event"
    },
    {
      "anonymous": false,
      "inputs": [
        {
          "indexed": true,
          "internalType": "bytes32",
          "name": "role",
          "type": "bytes32"
        },
        {
          "indexed": true,
          "internalType": "address",
          "name": "account",
          "type": "address"
        },
        {
          "indexed": true,
          "internalType": "address",
          "name": "sender",
          "type": "address"
        }
      ],
      "name": "RoleGranted",
      "type": "event"
    },
    {
      "anonymous": false,
      "inputs": [
        {
          "indexed": true,
          "internalType": "bytes32",
          "name": "role",
          "type": "bytes32"
        },
        {
          "indexed": true,
          "internalType": "address",
          "name": "account",
          "type": "address"
        },
        {
          "indexed": true,
          "internalType": "address",
          "name": "sender",
          "type": "address"
        }
      ],
      "name": "RoleRevoked",
      "type": "event"
    },
    {
      "anonymous": false,
      "inputs": [
        {
          "indexed": true,
          "internalType": "address",
          "name": "from",
          "type": "address"
        },
        {
          "indexed": true,
          "internalType": "address",
          "name": "to",
          "type": "address"
        },
        {
          "indexed": true,
          "internalType": "uint256",
          "name": "tokenId",
          "type": "uint256"
        }
      ],
      "name": "Transfer",
      "type": "event"
    },
    {
      "anonymous": false,
      "inputs": [
        {
          "indexed": false,
          "internalType": "address",
          "name": "account",
          "type": "address"
        }
      ],
      "name": "Unpaused",
      "type": "event"
    },
    {
      "inputs": [],
      "name": "DEFAULT_ADMIN_ROLE",
      "outputs": [
        {
          "internalType": "bytes32",
          "name": "",
          "type": "bytes32"
        }
      ],
      "stateMutability": "view",
      "type": "function"
    },
    {
      "inputs": [],
      "name": "MINTER_ROLE",
      "outputs": [
        {
          "internalType": "bytes32",
          "name": "",
          "type": "bytes32"
        }
      ],
      "stateMutability": "view",
      "type": "function"
    },
    {
      "inputs": [],
      "name": "PAUSER_ROLE",
      "outputs": [
        {
          "internalType": "bytes32",
          "name": "",
          "type": "bytes32"
        }
      ],
      "stateMutability": "view",
      "type": "function"
    },
    {
      "inputs": [
        {
          "internalType": "address",
          "name": "to",
          "type": "address"
        },
        {
          "internalType": "uint256",
          "name": "tokenId",
          "type": "uint256"
        }
      ],
      "name": "approve",
      "outputs": [],
      "stateMutability": "nonpayable",
      "type": "function"
    },
    {
      "inputs": [
        {
          "internalType": "address",
          "name": "owner",
          "type": "address"
        }
      ],
      "name": "balanceOf",
      "outputs": [
        {
          "internalType": "uint256",
          "name": "",
          "type": "uint256"
        }
      ],
      "stateMutability": "view",
      "type": "function"
    },
    {
      "inputs": [
        {
          "internalType": "uint256",
          "name": "tokenId",
          "type": "uint256"
        }
      ],
      "name": "burn",
      "outputs": [],
      "stateMutability": "nonpayable",
      "type": "function"
    },
    {
      "inputs": [
        {
          "internalType": "uint256",
          "name": "tokenId",
          "type": "uint256"
        }
      ],
      "name": "getApproved",
      "outputs": [
        {
          "internalType": "address",
          "name": "",
          "type": "address"
        }
      ],
      "stateMutability": "view",
      "type": "function"
    },
    {
      "inputs": [
        {
          "internalType": "bytes32",
          "name": "role",
          "type": "bytes32"
        }
      ],
      "name": "getRoleAdmin",
      "outputs": [
        {
          "internalType": "bytes32",
          "name": "",
          "type": "bytes32"
        }
      ],
      "stateMutability": "view",
      "type": "function"
    },
    {
      "inputs": [
        {
          "internalType": "bytes32",
          "name": "role",
          "type": "bytes32"
        },
        {
          "internalType": "address",
          "name": "account",
          "type": "address"
        }
      ],
      "name": "grantRole",
      "outputs": [],
      "stateMutability": "nonpayable",
      "type": "function"
    },
    {
      "inputs": [
        {
          "internalType": "bytes32",
          "name": "role",
          "type": "bytes32"
        },
        {
          "internalType": "address",
          "name": "account",
          "type": "address"
        }
      ],
      "name": "hasRole",
      "outputs": [
        {
          "internalType": "bool",
          "name": "",
          "type": "bool"
        }
      ],
      "stateMutability": "view",
      "type": "function"
    },
    {
      "inputs": [
        {
          "internalType": "address",
          "name": "owner",
          "type": "address"
        },
        {
          "internalType": "address",
          "name": "operator",
          "type": "address"
        }
      ],
      "name": "isApprovedForAll",
      "outputs": [
        {
          "internalType": "bool",
          "name": "",
          "type": "bool"
        }
      ],
      "stateMutability": "view",
      "type": "function"
    },
    {
      "inputs": [
        {
          "internalType": "string",
          "name": "_color",
          "type": "string"
        }
      ],
      "name": "mint",
      "outputs": [],
      "stateMutability": "nonpayable",
      "type": "function"
    },
    {
      "inputs": [],
      "name": "name",
      "outputs": [
        {
          "internalType": "string",
          "name": "",
          "type": "string"
        }
      ],
      "stateMutability": "view",
      "type": "function"
    },
    {
      "inputs": [
        {
          "internalType": "uint256",
          "name": "tokenId",
          "type": "uint256"
        }
      ],
      "name": "ownerOf",
      "outputs": [
        {
          "internalType": "address",
          "name": "",
          "type": "address"
        }
      ],
      "stateMutability": "view",
      "type": "function"
    },
    {
      "inputs": [],
      "name": "pause",
      "outputs": [],
      "stateMutability": "nonpayable",
      "type": "function"
    },
    {
      "inputs": [],
      "name": "paused",
      "outputs": [
        {
          "internalType": "bool",
          "name": "",
          "type": "bool"
        }
      ],
      "stateMutability": "view",
      "type": "function"
    },
    {
      "inputs": [
        {
          "internalType": "bytes32",
          "name": "role",
          "type": "bytes32"
        },
        {
          "internalType": "address",
          "name": "account",
          "type": "address"
        }
      ],
      "name": "renounceRole",
      "outputs": [],
      "stateMutability": "nonpayable",
      "type": "function"
    },
    {
      "inputs": [
        {
          "internalType": "bytes32",
          "name": "role",
          "type": "bytes32"
        },
        {
          "internalType": "address",
          "name": "account",
          "type": "address"
        }
      ],
      "name": "revokeRole",
      "outputs": [],
      "stateMutability": "nonpayable",
      "type": "function"
    },
    {
      "inputs": [
        {
          "internalType": "address",
          "name": "from",
          "type": "address"
        },
        {
          "internalType": "address",
          "name": "to",
          "type": "address"
        },
        {
          "internalType": "uint256",
          "name": "tokenId",
          "type": "uint256"
        }
      ],
      "name": "safeTransferFrom",
      "outputs": [],
      "stateMutability": "nonpayable",
      "type": "function"
    },
    {
      "inputs": [
        {
          "internalType": "address",
          "name": "from",
          "type": "address"
        },
        {
          "internalType": "address",
          "name": "to",
          "type": "address"
        },
        {
          "internalType": "uint256",
          "name": "tokenId",
          "type": "uint256"
        },
        {
          "internalType": "bytes",
          "name": "_data",
          "type": "bytes"
        }
      ],
      "name": "safeTransferFrom",
      "outputs": [],
      "stateMutability": "nonpayable",
      "type": "function"
    },
    {
      "inputs": [
        {
          "internalType": "address",
          "name": "operator",
          "type": "address"
        },
        {
          "internalType": "bool",
          "name": "approved",
          "type": "bool"
        }
      ],
      "name": "setApprovalForAll",
      "outputs": [],
      "stateMutability": "nonpayable",
      "type": "function"
    },
    {
      "inputs": [
        {
          "internalType": "bytes4",
          "name": "interfaceId",
          "type": "bytes4"
        }
      ],
      "name": "supportsInterface",
      "outputs": [
        {
          "internalType": "bool",
          "name": "",
          "type": "bool"
        }
      ],
      "stateMutability": "view",
      "type": "function"
    },
    {
      "inputs": [],
      "name": "symbol",
      "outputs": [
        {
          "internalType": "string",
          "name": "",
          "type": "string"
        }
      ],
      "stateMutability": "view",
      "type": "function"
    },
    {
      "inputs": [
        {
          "internalType": "uint256",
          "name": "index",
          "type": "uint256"
        }
      ],
      "name": "tokenByIndex",
      "outputs": [
        {
          "internalType": "uint256",
          "name": "",
          "type": "uint256"
        }
      ],
      "stateMutability": "view",
      "type": "function"
    },
    {
      "inputs": [
        {
          "internalType": "address",
          "name": "owner",
          "type": "address"
        },
        {
          "internalType": "uint256",
          "name": "index",
          "type": "uint256"
        }
      ],
      "name": "tokenOfOwnerByIndex",
      "outputs": [
        {
          "internalType": "uint256",
          "name": "",
          "type": "uint256"
        }
      ],
      "stateMutability": "view",
      "type": "function"
    },
    {
      "inputs": [
        {
          "internalType": "uint256",
          "name": "tokenId",
          "type": "uint256"
        }
      ],
      "name": "tokenURI",
      "outputs": [
        {
          "internalType": "string",
          "name": "",
          "type": "string"
        }
      ],
      "stateMutability": "view",
      "type": "function"
    },
    {
      "inputs": [],
      "name": "totalSupply",
      "outputs": [
        {
          "internalType": "uint256",
          "name": "",
          "type": "uint256"
        }
      ],
      "stateMutability": "view",
      "type": "function"
    },
    {
      "inputs": [
        {
          "internalType": "address",
          "name": "from",
          "type": "address"
        },
        {
          "internalType": "address",
          "name": "to",
          "type": "address"
        },
        {
          "internalType": "uint256",
          "name": "tokenId",
          "type": "uint256"
        }
      ],
      "name": "transferFrom",
      "outputs": [],
      "stateMutability": "nonpayable",
      "type": "function"
    },
    {
      "inputs": [],
      "name": "unpause",
      "outputs": [],
      "stateMutability": "nonpayable",
      "type": "function"
    }
  ],
  "bytecode": "0x60806040523480156200001157600080fd5b506040518060400160405280600581526020017f436f6c6f720000000000000000000000000000000000000000000000000000008152506040518060400160405280600581526020017f434f4c4f52000000000000000000000000000000000000000000000000000000815250816000908051906020019062000096929190620002c7565b508060019080519060200190620000af929190620002c7565b5050506000600b60006101000a81548160ff021916908315150217905550620000e26000801b336200014c60201b60201c565b620001147f65d7a28e3265b37a6474929f336521b332c1681b933f6cb9f3376673440d862a336200014c60201b60201c565b620001467f9f2df0fed2c77648de5860a4cc508cd0818c85b8b8a1ab4ceeef8d981c8956a6336200014c60201b60201c565b620003dc565b6200015e82826200016260201b60201c565b5050565b6200017482826200025460201b60201c565b62000250576001600c600084815260200190815260200160002060000160008373ffffffffffffffffffffffffffffffffffffffff1673ffffffffffffffffffffffffffffffffffffffff16815260200190815260200160002060006101000a81548160ff021916908315150217905550620001f5620002bf60201b60201c565b73ffffffffffffffffffffffffffffffffffffffff168173ffffffffffffffffffffffffffffffffffffffff16837f2f8788117e7eff1d82e926ec794901d17c78024a50270940304540a733656f0d60405160405180910390a45b5050565b6000600c600084815260200190815260200160002060000160008373ffffffffffffffffffffffffffffffffffffffff1673ffffffffffffffffffffffffffffffffffffffff16815260200190815260200160002060009054906101000a900460ff16905092915050565b600033905090565b828054620002d59062000377565b90600052602060002090601f016020900481019282620002f9576000855562000345565b82601f106200031457805160ff191683800117855562000345565b8280016001018555821562000345579182015b828111156200034457825182559160200191906001019062000327565b5b50905062000354919062000358565b5090565b5b808211156200037357600081600090555060010162000359565b5090565b600060028204905060018216806200039057607f821691505b60208210811415620003a757620003a6620003ad565b5b50919050565b7f4e487b7100000000000000000000000000000000000000000000000000000000600052602260045260246000fd5b614c2080620003ec6000396000f3fe608060405234801561001057600080fd5b50600436106101cf5760003560e01c80635c975abb11610104578063a22cb465116100a2578063d547741f11610071578063d547741f1461052c578063d85d3d2714610548578063e63ab1e914610564578063e985e9c514610582576101cf565b8063a22cb465146104a6578063b88d4fde146104c2578063c87b56dd146104de578063d53913931461050e576101cf565b80638456cb59116100de5780638456cb591461043057806391d148541461043a57806395d89b411461046a578063a217fddf14610488576101cf565b80635c975abb146103b25780636352211e146103d057806370a0823114610400576101cf565b80632f2ff15d116101715780633f4ba83a1161014b5780633f4ba83a1461034057806342842e0e1461034a57806342966c68146103665780634f6ccce714610382576101cf565b80632f2ff15d146102d85780632f745c59146102f457806336568abe14610324576101cf565b8063095ea7b3116101ad578063095ea7b31461025257806318160ddd1461026e57806323b872dd1461028c578063248a9ca3146102a8576101cf565b806301ffc9a7146101d457806306fdde0314610204578063081812fc14610222575b600080fd5b6101ee60048036038101906101e991906135de565b6105b2565b6040516101fb9190613c29565b60405180910390f35b61020c6105c4565b6040516102199190613c5f565b60405180910390f35b61023c60048036038101906102379190613671565b610656565b6040516102499190613bc2565b60405180910390f35b61026c6004803603810190610267919061353d565b6106db565b005b6102766107f3565b6040516102839190613fc1565b60405180910390f35b6102a660048036038101906102a19190613437565b610800565b005b6102c260048036038101906102bd9190613579565b610860565b6040516102cf9190613c44565b60405180910390f35b6102f260048036038101906102ed91906135a2565b610880565b005b61030e6004803603810190610309919061353d565b6108a9565b60405161031b9190613fc1565b60405180910390f35b61033e600480360381019061033991906135a2565b61094e565b005b6103486109d1565b005b610364600480360381019061035f9190613437565b610a0e565b005b610380600480360381019061037b9190613671565b610a2e565b005b61039c60048036038101906103979190613671565b610a8a565b6040516103a99190613fc1565b60405180910390f35b6103ba610b21565b6040516103c79190613c29565b60405180910390f35b6103ea60048036038101906103e59190613671565b610b38565b6040516103f79190613bc2565b60405180910390f35b61041a600480360381019061041591906133d2565b610bea565b6040516104279190613fc1565b60405180910390f35b610438610ca2565b005b610454600480360381019061044f91906135a2565b610cdf565b6040516104619190613c29565b60405180910390f35b610472610d4a565b60405161047f9190613c5f565b60405180910390f35b610490610ddc565b60405161049d9190613c44565b60405180910390f35b6104c060048036038101906104bb9190613501565b610de3565b005b6104dc60048036038101906104d79190613486565b610f64565b005b6104f860048036038101906104f39190613671565b610fc6565b6040516105059190613c5f565b60405180910390f35b610516610fd8565b6040516105239190613c44565b60405180910390f35b610546600480360381019061054191906135a2565b610ffc565b005b610562600480360381019061055d9190613630565b611025565b005b61056c6111ac565b6040516105799190613c44565b60405180910390f35b61059c600480360381019061059791906133fb565b6111d0565b6040516105a99190613c29565b60405180910390f35b60006105bd82611264565b9050919050565b6060600080546105d3906142a5565b80601f01602080910402602001604051908101604052809291908181526020018280546105ff906142a5565b801561064c5780601f106106215761010080835404028352916020019161064c565b820191906000526020600020905b81548152906001019060200180831161062f57829003601f168201915b5050505050905090565b6000610661826112de565b6106a0576040517f08c379a000000000000000000000000000000000000000000000000000000000815260040161069790613e81565b60405180910390fd5b6004600083815260200190815260200160002060009054906101000a900473ffffffffffffffffffffffffffffffffffffffff169050919050565b60006106e682610b38565b90508073ffffffffffffffffffffffffffffffffffffffff168373ffffffffffffffffffffffffffffffffffffffff161415610757576040517f08c379a000000000000000000000000000000000000000000000000000000000815260040161074e90613f01565b60405180910390fd5b8073ffffffffffffffffffffffffffffffffffffffff1661077661134a565b73ffffffffffffffffffffffffffffffffffffffff1614806107a557506107a48161079f61134a565b6111d0565b5b6107e4576040517f08c379a00000000000000000000000000000000000000000000000000000000081526004016107db90613dc1565b60405180910390fd5b6107ee8383611352565b505050565b6000600880549050905090565b61081161080b61134a565b8261140b565b610850576040517f08c379a000000000000000000000000000000000000000000000000000000000815260040161084790613f21565b60405180910390fd5b61085b8383836114e9565b505050565b6000600c6000838152602001908152602001600020600101549050919050565b61088982610860565b61089a8161089561134a565b611745565b6108a483836117e2565b505050565b60006108b483610bea565b82106108f5576040517f08c379a00000000000000000000000000000000000000000000000000000000081526004016108ec90613cc1565b60405180910390fd5b600660008473ffffffffffffffffffffffffffffffffffffffff1673ffffffffffffffffffffffffffffffffffffffff168152602001908152602001600020600083815260200190815260200160002054905092915050565b61095661134a565b73ffffffffffffffffffffffffffffffffffffffff168173ffffffffffffffffffffffffffffffffffffffff16146109c3576040517f08c379a00000000000000000000000000000000000000000000000000000000081526004016109ba90613fa1565b60405180910390fd5b6109cd82826118c3565b5050565b6109fb7f65d7a28e3265b37a6474929f336521b332c1681b933f6cb9f3376673440d862a33610cdf565b610a0457600080fd5b610a0c6119a5565b565b610a2983838360405180602001604052806000815250610f64565b505050565b610a3f610a3961134a565b8261140b565b610a7e576040517f08c379a0000000000000000000000000000000000000000000000000000000008152600401610a7590613f61565b60405180910390fd5b610a8781611a47565b50565b6000610a946107f3565b8210610ad5576040517f08c379a0000000000000000000000000000000000000000000000000000000008152600401610acc90613f41565b60405180910390fd5b60088281548110610b0f577f4e487b7100000000000000000000000000000000000000000000000000000000600052603260045260246000fd5b90600052602060002001549050919050565b6000600b60009054906101000a900460ff16905090565b6000806002600084815260200190815260200160002060009054906101000a900473ffffffffffffffffffffffffffffffffffffffff169050600073ffffffffffffffffffffffffffffffffffffffff168173ffffffffffffffffffffffffffffffffffffffff161415610be1576040517f08c379a0000000000000000000000000000000000000000000000000000000008152600401610bd890613e01565b60405180910390fd5b80915050919050565b60008073ffffffffffffffffffffffffffffffffffffffff168273ffffffffffffffffffffffffffffffffffffffff161415610c5b576040517f08c379a0000000000000000000000000000000000000000000000000000000008152600401610c5290613de1565b60405180910390fd5b600360008373ffffffffffffffffffffffffffffffffffffffff1673ffffffffffffffffffffffffffffffffffffffff168152602001908152602001600020549050919050565b610ccc7f65d7a28e3265b37a6474929f336521b332c1681b933f6cb9f3376673440d862a33610cdf565b610cd557600080fd5b610cdd611a53565b565b6000600c600084815260200190815260200160002060000160008373ffffffffffffffffffffffffffffffffffffffff1673ffffffffffffffffffffffffffffffffffffffff16815260200190815260200160002060009054906101000a900460ff16905092915050565b606060018054610d59906142a5565b80601f0160208091040260200160405190810160405280929190818152602001828054610d85906142a5565b8015610dd25780601f10610da757610100808354040283529160200191610dd2565b820191906000526020600020905b815481529060010190602001808311610db557829003601f168201915b5050505050905090565b6000801b81565b610deb61134a565b73ffffffffffffffffffffffffffffffffffffffff168273ffffffffffffffffffffffffffffffffffffffff161415610e59576040517f08c379a0000000000000000000000000000000000000000000000000000000008152600401610e5090613d41565b60405180910390fd5b8060056000610e6661134a565b73ffffffffffffffffffffffffffffffffffffffff1673ffffffffffffffffffffffffffffffffffffffff16815260200190815260200160002060008473ffffffffffffffffffffffffffffffffffffffff1673ffffffffffffffffffffffffffffffffffffffff16815260200190815260200160002060006101000a81548160ff0219169083151502179055508173ffffffffffffffffffffffffffffffffffffffff16610f1361134a565b73ffffffffffffffffffffffffffffffffffffffff167f17307eab39ab6107e8899845ad3d59bd9653f200f220920489ca2b5937696c3183604051610f589190613c29565b60405180910390a35050565b610f75610f6f61134a565b8361140b565b610fb4576040517f08c379a0000000000000000000000000000000000000000000000000000000008152600401610fab90613f21565b60405180910390fd5b610fc084848484611af6565b50505050565b6060610fd182611b52565b9050919050565b7f9f2df0fed2c77648de5860a4cc508cd0818c85b8b8a1ab4ceeef8d981c8956a681565b61100582610860565b6110168161101161134a565b611745565b61102083836118c3565b505050565b61104f7f9f2df0fed2c77648de5860a4cc508cd0818c85b8b8a1ab4ceeef8d981c8956a633610cdf565b61108e576040517f08c379a000000000000000000000000000000000000000000000000000000000815260040161108590613f81565b60405180910390fd5b61109781611ca4565b6110d6576040517f08c379a00000000000000000000000000000000000000000000000000000000081526004016110cd90613ec1565b60405180910390fd5b600e816040516110e69190613b4d565b908152602001604051809103902060009054906101000a900460ff1615611142576040517f08c379a000000000000000000000000000000000000000000000000000000000815260040161113990613da1565b60405180910390fd5b61115533611150600d611fa0565b611fae565b611168611162600d611fa0565b82611fcc565b611172600d612040565b6001600e826040516111849190613b4d565b908152602001604051809103902060006101000a81548160ff02191690831515021790555050565b7f65d7a28e3265b37a6474929f336521b332c1681b933f6cb9f3376673440d862a81565b6000600560008473ffffffffffffffffffffffffffffffffffffffff1673ffffffffffffffffffffffffffffffffffffffff16815260200190815260200160002060008373ffffffffffffffffffffffffffffffffffffffff1673ffffffffffffffffffffffffffffffffffffffff16815260200190815260200160002060009054906101000a900460ff16905092915050565b60007f7965db0b000000000000000000000000000000000000000000000000000000007bffffffffffffffffffffffffffffffffffffffffffffffffffffffff1916827bffffffffffffffffffffffffffffffffffffffffffffffffffffffff191614806112d757506112d682612056565b5b9050919050565b60008073ffffffffffffffffffffffffffffffffffffffff166002600084815260200190815260200160002060009054906101000a900473ffffffffffffffffffffffffffffffffffffffff1673ffffffffffffffffffffffffffffffffffffffff1614159050919050565b600033905090565b816004600083815260200190815260200160002060006101000a81548173ffffffffffffffffffffffffffffffffffffffff021916908373ffffffffffffffffffffffffffffffffffffffff160217905550808273ffffffffffffffffffffffffffffffffffffffff166113c583610b38565b73ffffffffffffffffffffffffffffffffffffffff167f8c5be1e5ebec7d5bd14f71427d1e84f3dd0314c0f7b2291e5b200ac8c7c3b92560405160405180910390a45050565b6000611416826112de565b611455576040517f08c379a000000000000000000000000000000000000000000000000000000000815260040161144c90613d61565b60405180910390fd5b600061146083610b38565b90508073ffffffffffffffffffffffffffffffffffffffff168473ffffffffffffffffffffffffffffffffffffffff1614806114cf57508373ffffffffffffffffffffffffffffffffffffffff166114b784610656565b73ffffffffffffffffffffffffffffffffffffffff16145b806114e057506114df81856111d0565b5b91505092915050565b8273ffffffffffffffffffffffffffffffffffffffff1661150982610b38565b73ffffffffffffffffffffffffffffffffffffffff161461155f576040517f08c379a000000000000000000000000000000000000000000000000000000000815260040161155690613ea1565b60405180910390fd5b600073ffffffffffffffffffffffffffffffffffffffff168273ffffffffffffffffffffffffffffffffffffffff1614156115cf576040517f08c379a00000000000000000000000000000000000000000000000000000000081526004016115c690613d21565b60405180910390fd5b6115da8383836120d0565b6115e5600082611352565b6001600360008573ffffffffffffffffffffffffffffffffffffffff1673ffffffffffffffffffffffffffffffffffffffff16815260200190815260200160002060008282546116359190614187565b925050819055506001600360008473ffffffffffffffffffffffffffffffffffffffff1673ffffffffffffffffffffffffffffffffffffffff168152602001908152602001600020600082825461168c91906140a6565b92505081905550816002600083815260200190815260200160002060006101000a81548173ffffffffffffffffffffffffffffffffffffffff021916908373ffffffffffffffffffffffffffffffffffffffff160217905550808273ffffffffffffffffffffffffffffffffffffffff168473ffffffffffffffffffffffffffffffffffffffff167fddf252ad1be2c89b69c2b068fc378daa952ba7f163c4a11628f55a4df523b3ef60405160405180910390a4505050565b61174f8282610cdf565b6117de576117748173ffffffffffffffffffffffffffffffffffffffff166014612128565b6117828360001c6020612128565b604051602001611793929190613b88565b6040516020818303038152906040526040517f08c379a00000000000000000000000000000000000000000000000000000000081526004016117d59190613c5f565b60405180910390fd5b5050565b6117ec8282610cdf565b6118bf576001600c600084815260200190815260200160002060000160008373ffffffffffffffffffffffffffffffffffffffff1673ffffffffffffffffffffffffffffffffffffffff16815260200190815260200160002060006101000a81548160ff02191690831515021790555061186461134a565b73ffffffffffffffffffffffffffffffffffffffff168173ffffffffffffffffffffffffffffffffffffffff16837f2f8788117e7eff1d82e926ec794901d17c78024a50270940304540a733656f0d60405160405180910390a45b5050565b6118cd8282610cdf565b156119a1576000600c600084815260200190815260200160002060000160008373ffffffffffffffffffffffffffffffffffffffff1673ffffffffffffffffffffffffffffffffffffffff16815260200190815260200160002060006101000a81548160ff02191690831515021790555061194661134a565b73ffffffffffffffffffffffffffffffffffffffff168173ffffffffffffffffffffffffffffffffffffffff16837ff6391f5c32d9c69d2a47ea670b442974b53935d1edc7fd64eb21e047a839171b60405160405180910390a45b5050565b6119ad610b21565b6119ec576040517f08c379a00000000000000000000000000000000000000000000000000000000081526004016119e390613ca1565b60405180910390fd5b6000600b60006101000a81548160ff0219169083151502179055507f5db9ee0a495bf2e6ff9c91a7834c1ba4fdd244a5e8aa4e537bd38aeae4b073aa611a3061134a565b604051611a3d9190613bc2565b60405180910390a1565b611a5081612422565b50565b611a5b610b21565b15611a9b576040517f08c379a0000000000000000000000000000000000000000000000000000000008152600401611a9290613d81565b60405180910390fd5b6001600b60006101000a81548160ff0219169083151502179055507f62e78cea01bee320cd4e420270b5ea74000d11b0c9f74754ebdbfc544b05a258611adf61134a565b604051611aec9190613bc2565b60405180910390a1565b611b018484846114e9565b611b0d84848484612475565b611b4c576040517f08c379a0000000000000000000000000000000000000000000000000000000008152600401611b4390613ce1565b60405180910390fd5b50505050565b6060611b5d826112de565b611b9c576040517f08c379a0000000000000000000000000000000000000000000000000000000008152600401611b9390613e61565b60405180910390fd5b6000600a60008481526020019081526020016000208054611bbc906142a5565b80601f0160208091040260200160405190810160405280929190818152602001828054611be8906142a5565b8015611c355780601f10611c0a57610100808354040283529160200191611c35565b820191906000526020600020905b815481529060010190602001808311611c1857829003601f168201915b505050505090506000611c4661260c565b9050600081511415611c5c578192505050611c9f565b600082511115611c91578082604051602001611c79929190613b64565b60405160208183030381529060405292505050611c9f565b611c9a84612623565b925050505b919050565b60008082519050600781148015611d4057507f230000000000000000000000000000000000000000000000000000000000000083600081518110611d11577f4e487b7100000000000000000000000000000000000000000000000000000000600052603260045260246000fd5b602001015160f81c60f81b7effffffffffffffffffffffffffffffffffffffffffffffffffffffffffffff1916145b15611f95576000600190505b81811015611f8a576000848281518110611d8f577f4e487b7100000000000000000000000000000000000000000000000000000000600052603260045260246000fd5b602001015160f81c60f81b90507f4100000000000000000000000000000000000000000000000000000000000000817effffffffffffffffffffffffffffffffffffffffffffffffffffffffffffff191610158015611e3057507f5a00000000000000000000000000000000000000000000000000000000000000817effffffffffffffffffffffffffffffffffffffffffffffffffffffffffffff191611155b80611ecb57507f6100000000000000000000000000000000000000000000000000000000000000817effffffffffffffffffffffffffffffffffffffffffffffffffffffffffffff191610158015611eca57507f7a00000000000000000000000000000000000000000000000000000000000000817effffffffffffffffffffffffffffffffffffffffffffffffffffffffffffff191611155b5b80611f6657507f3000000000000000000000000000000000000000000000000000000000000000817effffffffffffffffffffffffffffffffffffffffffffffffffffffffffffff191610158015611f6557507f3900000000000000000000000000000000000000000000000000000000000000817effffffffffffffffffffffffffffffffffffffffffffffffffffffffffffff191611155b5b611f765760009350505050611f9b565b508080611f8290614308565b915050611d4c565b506001915050611f9b565b60009150505b919050565b600081600001549050919050565b611fc88282604051806020016040528060008152506126ca565b5050565b611fd5826112de565b612014576040517f08c379a000000000000000000000000000000000000000000000000000000000815260040161200b90613e21565b60405180910390fd5b80600a6000848152602001908152602001600020908051906020019061203b9291906131a1565b505050565b6001816000016000828254019250508190555050565b60007f780e9d63000000000000000000000000000000000000000000000000000000007bffffffffffffffffffffffffffffffffffffffffffffffffffffffff1916827bffffffffffffffffffffffffffffffffffffffffffffffffffffffff191614806120c957506120c882612725565b5b9050919050565b6120d8610b21565b15612118576040517f08c379a000000000000000000000000000000000000000000000000000000000815260040161210f90613d81565b60405180910390fd5b612123838383612807565b505050565b60606000600283600261213b919061412d565b61214591906140a6565b67ffffffffffffffff811115612184577f4e487b7100000000000000000000000000000000000000000000000000000000600052604160045260246000fd5b6040519080825280601f01601f1916602001820160405280156121b65781602001600182028036833780820191505090505b5090507f300000000000000000000000000000000000000000000000000000000000000081600081518110612214577f4e487b7100000000000000000000000000000000000000000000000000000000600052603260045260246000fd5b60200101907effffffffffffffffffffffffffffffffffffffffffffffffffffffffffffff1916908160001a9053507f78000000000000000000000000000000000000000000000000000000000000008160018151811061229e577f4e487b7100000000000000000000000000000000000000000000000000000000600052603260045260246000fd5b60200101907effffffffffffffffffffffffffffffffffffffffffffffffffffffffffffff1916908160001a905350600060018460026122de919061412d565b6122e891906140a6565b90505b60018111156123d4577f3031323334353637383961626364656600000000000000000000000000000000600f861660108110612350577f4e487b7100000000000000000000000000000000000000000000000000000000600052603260045260246000fd5b1a60f81b82828151811061238d577f4e487b7100000000000000000000000000000000000000000000000000000000600052603260045260246000fd5b60200101907effffffffffffffffffffffffffffffffffffffffffffffffffffffffffffff1916908160001a905350600485901c9450806123cd9061427b565b90506122eb565b5060008414612418576040517f08c379a000000000000000000000000000000000000000000000000000000000815260040161240f90613c81565b60405180910390fd5b8091505092915050565b61242b8161291b565b6000600a6000838152602001908152602001600020805461244b906142a5565b90501461247257600a600082815260200190815260200160002060006124719190613227565b5b50565b60006124968473ffffffffffffffffffffffffffffffffffffffff16612a2c565b156125ff578373ffffffffffffffffffffffffffffffffffffffff1663150b7a026124bf61134a565b8786866040518563ffffffff1660e01b81526004016124e19493929190613bdd565b602060405180830381600087803b1580156124fb57600080fd5b505af192505050801561252c57506040513d601f19601f820116820180604052508101906125299190613607565b60015b6125af573d806000811461255c576040519150601f19603f3d011682016040523d82523d6000602084013e612561565b606091505b506000815114156125a7576040517f08c379a000000000000000000000000000000000000000000000000000000000815260040161259e90613ce1565b60405180910390fd5b805181602001fd5b63150b7a0260e01b7bffffffffffffffffffffffffffffffffffffffffffffffffffffffff1916817bffffffffffffffffffffffffffffffffffffffffffffffffffffffff191614915050612604565b600190505b949350505050565b606060405180602001604052806000815250905090565b606061262e826112de565b61266d576040517f08c379a000000000000000000000000000000000000000000000000000000000815260040161266490613ee1565b60405180910390fd5b600061267761260c565b9050600081511161269757604051806020016040528060008152506126c2565b806126a184612a3f565b6040516020016126b2929190613b64565b6040516020818303038152906040525b915050919050565b6126d48383612bec565b6126e16000848484612475565b612720576040517f08c379a000000000000000000000000000000000000000000000000000000000815260040161271790613ce1565b60405180910390fd5b505050565b60007f80ac58cd000000000000000000000000000000000000000000000000000000007bffffffffffffffffffffffffffffffffffffffffffffffffffffffff1916827bffffffffffffffffffffffffffffffffffffffffffffffffffffffff191614806127f057507f5b5e139f000000000000000000000000000000000000000000000000000000007bffffffffffffffffffffffffffffffffffffffffffffffffffffffff1916827bffffffffffffffffffffffffffffffffffffffffffffffffffffffff1916145b8061280057506127ff82612dba565b5b9050919050565b612812838383612e24565b600073ffffffffffffffffffffffffffffffffffffffff168373ffffffffffffffffffffffffffffffffffffffff1614156128555761285081612e29565b612894565b8173ffffffffffffffffffffffffffffffffffffffff168373ffffffffffffffffffffffffffffffffffffffff1614612893576128928382612e72565b5b5b600073ffffffffffffffffffffffffffffffffffffffff168273ffffffffffffffffffffffffffffffffffffffff1614156128d7576128d281612fdf565b612916565b8273ffffffffffffffffffffffffffffffffffffffff168273ffffffffffffffffffffffffffffffffffffffff1614612915576129148282613122565b5b5b505050565b600061292682610b38565b9050612934816000846120d0565b61293f600083611352565b6001600360008373ffffffffffffffffffffffffffffffffffffffff1673ffffffffffffffffffffffffffffffffffffffff168152602001908152602001600020600082825461298f9190614187565b925050819055506002600083815260200190815260200160002060006101000a81549073ffffffffffffffffffffffffffffffffffffffff021916905581600073ffffffffffffffffffffffffffffffffffffffff168273ffffffffffffffffffffffffffffffffffffffff167fddf252ad1be2c89b69c2b068fc378daa952ba7f163c4a11628f55a4df523b3ef60405160405180910390a45050565b600080823b905060008111915050919050565b60606000821415612a87576040518060400160405280600181526020017f30000000000000000000000000000000000000000000000000000000000000008152509050612be7565b600082905060005b60008214612ab9578080612aa290614308565b915050600a82612ab291906140fc565b9150612a8f565b60008167ffffffffffffffff811115612afb577f4e487b7100000000000000000000000000000000000000000000000000000000600052604160045260246000fd5b6040519080825280601f01601f191660200182016040528015612b2d5781602001600182028036833780820191505090505b5090505b60008514612be057600182612b469190614187565b9150600a85612b559190614351565b6030612b6191906140a6565b60f81b818381518110612b9d577f4e487b7100000000000000000000000000000000000000000000000000000000600052603260045260246000fd5b60200101907effffffffffffffffffffffffffffffffffffffffffffffffffffffffffffff1916908160001a905350600a85612bd991906140fc565b9450612b31565b8093505050505b919050565b600073ffffffffffffffffffffffffffffffffffffffff168273ffffffffffffffffffffffffffffffffffffffff161415612c5c576040517f08c379a0000000000000000000000000000000000000000000000000000000008152600401612c5390613e41565b60405180910390fd5b612c65816112de565b15612ca5576040517f08c379a0000000000000000000000000000000000000000000000000000000008152600401612c9c90613d01565b60405180910390fd5b612cb1600083836120d0565b6001600360008473ffffffffffffffffffffffffffffffffffffffff1673ffffffffffffffffffffffffffffffffffffffff1681526020019081526020016000206000828254612d0191906140a6565b92505081905550816002600083815260200190815260200160002060006101000a81548173ffffffffffffffffffffffffffffffffffffffff021916908373ffffffffffffffffffffffffffffffffffffffff160217905550808273ffffffffffffffffffffffffffffffffffffffff16600073ffffffffffffffffffffffffffffffffffffffff167fddf252ad1be2c89b69c2b068fc378daa952ba7f163c4a11628f55a4df523b3ef60405160405180910390a45050565b60007f01ffc9a7000000000000000000000000000000000000000000000000000000007bffffffffffffffffffffffffffffffffffffffffffffffffffffffff1916827bffffffffffffffffffffffffffffffffffffffffffffffffffffffff1916149050919050565b505050565b6008805490506009600083815260200190815260200160002081905550600881908060018154018082558091505060019003906000526020600020016000909190919091505550565b60006001612e7f84610bea565b612e899190614187565b9050600060076000848152602001908152602001600020549050818114612f6e576000600660008673ffffffffffffffffffffffffffffffffffffffff1673ffffffffffffffffffffffffffffffffffffffff168152602001908152602001600020600084815260200190815260200160002054905080600660008773ffffffffffffffffffffffffffffffffffffffff1673ffffffffffffffffffffffffffffffffffffffff168152602001908152602001600020600084815260200190815260200160002081905550816007600083815260200190815260200160002081905550505b6007600084815260200190815260200160002060009055600660008573ffffffffffffffffffffffffffffffffffffffff1673ffffffffffffffffffffffffffffffffffffffff16815260200190815260200160002060008381526020019081526020016000206000905550505050565b60006001600880549050612ff39190614187565b9050600060096000848152602001908152602001600020549050600060088381548110613049577f4e487b7100000000000000000000000000000000000000000000000000000000600052603260045260246000fd5b906000526020600020015490508060088381548110613091577f4e487b7100000000000000000000000000000000000000000000000000000000600052603260045260246000fd5b906000526020600020018190555081600960008381526020019081526020016000208190555060096000858152602001908152602001600020600090556008805480613106577f4e487b7100000000000000000000000000000000000000000000000000000000600052603160045260246000fd5b6001900381819060005260206000200160009055905550505050565b600061312d83610bea565b905081600660008573ffffffffffffffffffffffffffffffffffffffff1673ffffffffffffffffffffffffffffffffffffffff168152602001908152602001600020600083815260200190815260200160002081905550806007600084815260200190815260200160002081905550505050565b8280546131ad906142a5565b90600052602060002090601f0160209004810192826131cf5760008555613216565b82601f106131e857805160ff1916838001178555613216565b82800160010185558215613216579182015b828111156132155782518255916020019190600101906131fa565b5b5090506132239190613267565b5090565b508054613233906142a5565b6000825580601f106132455750613264565b601f0160209004906000526020600020908101906132639190613267565b5b50565b5b80821115613280576000816000905550600101613268565b5090565b600061329761329284614001565b613fdc565b9050828152602081018484840111156132af57600080fd5b6132ba848285614239565b509392505050565b60006132d56132d084614032565b613fdc565b9050828152602081018484840111156132ed57600080fd5b6132f8848285614239565b509392505050565b60008135905061330f81614b77565b92915050565b60008135905061332481614b8e565b92915050565b60008135905061333981614ba5565b92915050565b60008135905061334e81614bbc565b92915050565b60008151905061336381614bbc565b92915050565b600082601f83011261337a57600080fd5b813561338a848260208601613284565b91505092915050565b600082601f8301126133a457600080fd5b81356133b48482602086016132c2565b91505092915050565b6000813590506133cc81614bd3565b92915050565b6000602082840312156133e457600080fd5b60006133f284828501613300565b91505092915050565b6000806040838503121561340e57600080fd5b600061341c85828601613300565b925050602061342d85828601613300565b9150509250929050565b60008060006060848603121561344c57600080fd5b600061345a86828701613300565b935050602061346b86828701613300565b925050604061347c868287016133bd565b9150509250925092565b6000806000806080858703121561349c57600080fd5b60006134aa87828801613300565b94505060206134bb87828801613300565b93505060406134cc878288016133bd565b925050606085013567ffffffffffffffff8111156134e957600080fd5b6134f587828801613369565b91505092959194509250565b6000806040838503121561351457600080fd5b600061352285828601613300565b925050602061353385828601613315565b9150509250929050565b6000806040838503121561355057600080fd5b600061355e85828601613300565b925050602061356f858286016133bd565b9150509250929050565b60006020828403121561358b57600080fd5b60006135998482850161332a565b91505092915050565b600080604083850312156135b557600080fd5b60006135c38582860161332a565b92505060206135d485828601613300565b9150509250929050565b6000602082840312156135f057600080fd5b60006135fe8482850161333f565b91505092915050565b60006020828403121561361957600080fd5b600061362784828501613354565b91505092915050565b60006020828403121561364257600080fd5b600082013567ffffffffffffffff81111561365c57600080fd5b61366884828501613393565b91505092915050565b60006020828403121561368357600080fd5b6000613691848285016133bd565b91505092915050565b6136a3816141bb565b82525050565b6136b2816141cd565b82525050565b6136c1816141d9565b82525050565b60006136d282614063565b6136dc8185614079565b93506136ec818560208601614248565b6136f58161443e565b840191505092915050565b600061370b8261406e565b613715818561408a565b9350613725818560208601614248565b61372e8161443e565b840191505092915050565b60006137448261406e565b61374e818561409b565b935061375e818560208601614248565b80840191505092915050565b600061377760208361408a565b91506137828261444f565b602082019050919050565b600061379a60148361408a565b91506137a582614478565b602082019050919050565b60006137bd602b8361408a565b91506137c8826144a1565b604082019050919050565b60006137e060328361408a565b91506137eb826144f0565b604082019050919050565b6000613803601c8361408a565b915061380e8261453f565b602082019050919050565b600061382660248361408a565b915061383182614568565b604082019050919050565b600061384960198361408a565b9150613854826145b7565b602082019050919050565b600061386c602c8361408a565b9150613877826145e0565b604082019050919050565b600061388f60108361408a565b915061389a8261462f565b602082019050919050565b60006138b260158361408a565b91506138bd82614658565b602082019050919050565b60006138d560388361408a565b91506138e082614681565b604082019050919050565b60006138f8602a8361408a565b9150613903826146d0565b604082019050919050565b600061391b60298361408a565b91506139268261471f565b604082019050919050565b600061393e602e8361408a565b91506139498261476e565b604082019050919050565b600061396160208361408a565b915061396c826147bd565b602082019050919050565b600061398460318361408a565b915061398f826147e6565b604082019050919050565b60006139a7602c8361408a565b91506139b282614835565b604082019050919050565b60006139ca60298361408a565b91506139d582614884565b604082019050919050565b60006139ed60218361408a565b91506139f8826148d3565b604082019050919050565b6000613a10602f8361408a565b9150613a1b82614922565b604082019050919050565b6000613a3360218361408a565b9150613a3e82614971565b604082019050919050565b6000613a5660318361408a565b9150613a61826149c0565b604082019050919050565b6000613a79602c8361408a565b9150613a8482614a0f565b604082019050919050565b6000613a9c60178361409b565b9150613aa782614a5e565b601782019050919050565b6000613abf60308361408a565b9150613aca82614a87565b604082019050919050565b6000613ae2601d8361408a565b9150613aed82614ad6565b602082019050919050565b6000613b0560118361409b565b9150613b1082614aff565b601182019050919050565b6000613b28602f8361408a565b9150613b3382614b28565b604082019050919050565b613b478161422f565b82525050565b6000613b598284613739565b915081905092915050565b6000613b708285613739565b9150613b7c8284613739565b91508190509392505050565b6000613b9382613a8f565b9150613b9f8285613739565b9150613baa82613af8565b9150613bb68284613739565b91508190509392505050565b6000602082019050613bd7600083018461369a565b92915050565b6000608082019050613bf2600083018761369a565b613bff602083018661369a565b613c0c6040830185613b3e565b8181036060830152613c1e81846136c7565b905095945050505050565b6000602082019050613c3e60008301846136a9565b92915050565b6000602082019050613c5960008301846136b8565b92915050565b60006020820190508181036000830152613c798184613700565b905092915050565b60006020820190508181036000830152613c9a8161376a565b9050919050565b60006020820190508181036000830152613cba8161378d565b9050919050565b60006020820190508181036000830152613cda816137b0565b9050919050565b60006020820190508181036000830152613cfa816137d3565b9050919050565b60006020820190508181036000830152613d1a816137f6565b9050919050565b60006020820190508181036000830152613d3a81613819565b9050919050565b60006020820190508181036000830152613d5a8161383c565b9050919050565b60006020820190508181036000830152613d7a8161385f565b9050919050565b60006020820190508181036000830152613d9a81613882565b9050919050565b60006020820190508181036000830152613dba816138a5565b9050919050565b60006020820190508181036000830152613dda816138c8565b9050919050565b60006020820190508181036000830152613dfa816138eb565b9050919050565b60006020820190508181036000830152613e1a8161390e565b9050919050565b60006020820190508181036000830152613e3a81613931565b9050919050565b60006020820190508181036000830152613e5a81613954565b9050919050565b60006020820190508181036000830152613e7a81613977565b9050919050565b60006020820190508181036000830152613e9a8161399a565b9050919050565b60006020820190508181036000830152613eba816139bd565b9050919050565b60006020820190508181036000830152613eda816139e0565b9050919050565b60006020820190508181036000830152613efa81613a03565b9050919050565b60006020820190508181036000830152613f1a81613a26565b9050919050565b60006020820190508181036000830152613f3a81613a49565b9050919050565b60006020820190508181036000830152613f5a81613a6c565b9050919050565b60006020820190508181036000830152613f7a81613ab2565b9050919050565b60006020820190508181036000830152613f9a81613ad5565b9050919050565b60006020820190508181036000830152613fba81613b1b565b9050919050565b6000602082019050613fd66000830184613b3e565b92915050565b6000613fe6613ff7565b9050613ff282826142d7565b919050565b6000604051905090565b600067ffffffffffffffff82111561401c5761401b61440f565b5b6140258261443e565b9050602081019050919050565b600067ffffffffffffffff82111561404d5761404c61440f565b5b6140568261443e565b9050602081019050919050565b600081519050919050565b600081519050919050565b600082825260208201905092915050565b600082825260208201905092915050565b600081905092915050565b60006140b18261422f565b91506140bc8361422f565b9250827fffffffffffffffffffffffffffffffffffffffffffffffffffffffffffffffff038211156140f1576140f0614382565b5b828201905092915050565b60006141078261422f565b91506141128361422f565b925082614122576141216143b1565b5b828204905092915050565b60006141388261422f565b91506141438361422f565b9250817fffffffffffffffffffffffffffffffffffffffffffffffffffffffffffffffff048311821515161561417c5761417b614382565b5b828202905092915050565b60006141928261422f565b915061419d8361422f565b9250828210156141b0576141af614382565b5b828203905092915050565b60006141c68261420f565b9050919050565b60008115159050919050565b6000819050919050565b60007fffffffff0000000000000000000000000000000000000000000000000000000082169050919050565b600073ffffffffffffffffffffffffffffffffffffffff82169050919050565b6000819050919050565b82818337600083830152505050565b60005b8381101561426657808201518184015260208101905061424b565b83811115614275576000848401525b50505050565b60006142868261422f565b9150600082141561429a57614299614382565b5b600182039050919050565b600060028204905060018216806142bd57607f821691505b602082108114156142d1576142d06143e0565b5b50919050565b6142e08261443e565b810181811067ffffffffffffffff821117156142ff576142fe61440f565b5b80604052505050565b60006143138261422f565b91507fffffffffffffffffffffffffffffffffffffffffffffffffffffffffffffffff82141561434657614345614382565b5b600182019050919050565b600061435c8261422f565b91506143678361422f565b925082614377576143766143b1565b5b828206905092915050565b7f4e487b7100000000000000000000000000000000000000000000000000000000600052601160045260246000fd5b7f4e487b7100000000000000000000000000000000000000000000000000000000600052601260045260246000fd5b7f4e487b7100000000000000000000000000000000000000000000000000000000600052602260045260246000fd5b7f4e487b7100000000000000000000000000000000000000000000000000000000600052604160045260246000fd5b6000601f19601f8301169050919050565b7f537472696e67733a20686578206c656e67746820696e73756666696369656e74600082015250565b7f5061757361626c653a206e6f7420706175736564000000000000000000000000600082015250565b7f455243373231456e756d657261626c653a206f776e657220696e646578206f7560008201527f74206f6620626f756e6473000000000000000000000000000000000000000000602082015250565b7f4552433732313a207472616e7366657220746f206e6f6e20455243373231526560008201527f63656976657220696d706c656d656e7465720000000000000000000000000000602082015250565b7f4552433732313a20746f6b656e20616c7265616479206d696e74656400000000600082015250565b7f4552433732313a207472616e7366657220746f20746865207a65726f2061646460008201527f7265737300000000000000000000000000000000000000000000000000000000602082015250565b7f4552433732313a20617070726f766520746f2063616c6c657200000000000000600082015250565b7f4552433732313a206f70657261746f7220717565727920666f72206e6f6e657860008201527f697374656e7420746f6b656e0000000000000000000000000000000000000000602082015250565b7f5061757361626c653a2070617573656400000000000000000000000000000000600082015250565b7f436f6c6f7220616c7265616479206578697374732e0000000000000000000000600082015250565b7f4552433732313a20617070726f76652063616c6c6572206973206e6f74206f7760008201527f6e6572206e6f7220617070726f76656420666f7220616c6c0000000000000000602082015250565b7f4552433732313a2062616c616e636520717565727920666f7220746865207a6560008201527f726f206164647265737300000000000000000000000000000000000000000000602082015250565b7f4552433732313a206f776e657220717565727920666f72206e6f6e657869737460008201527f656e7420746f6b656e0000000000000000000000000000000000000000000000602082015250565b7f45524337323155524953746f726167653a2055524920736574206f66206e6f6e60008201527f6578697374656e7420746f6b656e000000000000000000000000000000000000602082015250565b7f4552433732313a206d696e7420746f20746865207a65726f2061646472657373600082015250565b7f45524337323155524953746f726167653a2055524920717565727920666f722060008201527f6e6f6e6578697374656e7420746f6b656e000000000000000000000000000000602082015250565b7f4552433732313a20617070726f76656420717565727920666f72206e6f6e657860008201527f697374656e7420746f6b656e0000000000000000000000000000000000000000602082015250565b7f4552433732313a207472616e73666572206f6620746f6b656e2074686174206960008201527f73206e6f74206f776e0000000000000000000000000000000000000000000000602082015250565b7f436f6c6f72206d757374206265206f6620666f726d617420222378787878787860008201527f2200000000000000000000000000000000000000000000000000000000000000602082015250565b7f4552433732314d657461646174613a2055524920717565727920666f72206e6f60008201527f6e6578697374656e7420746f6b656e0000000000000000000000000000000000602082015250565b7f4552433732313a20617070726f76616c20746f2063757272656e74206f776e6560008201527f7200000000000000000000000000000000000000000000000000000000000000602082015250565b7f4552433732313a207472616e736665722063616c6c6572206973206e6f74206f60008201527f776e6572206e6f7220617070726f766564000000000000000000000000000000602082015250565b7f455243373231456e756d657261626c653a20676c6f62616c20696e646578206f60008201527f7574206f6620626f756e64730000000000000000000000000000000000000000602082015250565b7f416363657373436f6e74726f6c3a206163636f756e7420000000000000000000600082015250565b7f4552433732314275726e61626c653a2063616c6c6572206973206e6f74206f7760008201527f6e6572206e6f7220617070726f76656400000000000000000000000000000000602082015250565b7f53656e646572206d7573742068617665206d696e74657220726f6c652e000000600082015250565b7f206973206d697373696e6720726f6c6520000000000000000000000000000000600082015250565b7f416363657373436f6e74726f6c3a2063616e206f6e6c792072656e6f756e636560008201527f20726f6c657320666f722073656c660000000000000000000000000000000000602082015250565b614b80816141bb565b8114614b8b57600080fd5b50565b614b97816141cd565b8114614ba257600080fd5b50565b614bae816141d9565b8114614bb957600080fd5b50565b614bc5816141e3565b8114614bd057600080fd5b50565b614bdc8161422f565b8114614be757600080fd5b5056fea2646970667358221220c21f3d66709d46b8257772130d578258480e20592284d915eb5f0099c9cfd63364736f6c63430008040033",
  "linkReferences": {},
  "deployedLinkReferences": {}
}