{
  "_format": "hh-sol-artifact-1",
  "contractName": "Color",
  "sourceName": "contracts/Color.sol",
  "abi": [
    {
      "inputs": [],
      "stateMutability": "nonpayable",
      "type": "constructor"
    },
    {
      "anonymous": false,
      "inputs": [
        {
          "indexed": true,
          "internalType": "address",
          "name": "owner",
          "type": "address"
        },
        {
          "indexed": true,
          "internalType": "address",
          "name": "approved",
          "type": "address"
        },
        {
          "indexed": true,
          "internalType": "uint256",
          "name": "tokenId",
          "type": "uint256"
        }
      ],
      "name": "Approval",
      "type": "event"
    },
    {
      "anonymous": false,
      "inputs": [
        {
          "indexed": true,
          "internalType": "address",
          "name": "owner",
          "type": "address"
        },
        {
          "indexed": true,
          "internalType": "address",
          "name": "operator",
          "type": "address"
        },
        {
          "indexed": false,
          "internalType": "bool",
          "name": "approved",
          "type": "bool"
        }
      ],
      "name": "ApprovalForAll",
      "type": "event"
    },
    {
      "anonymous": false,
      "inputs": [
        {
          "indexed": false,
          "internalType": "address",
          "name": "account",
          "type": "address"
        }
      ],
      "name": "Paused",
      "type": "event"
    },
    {
      "anonymous": false,
      "inputs": [
        {
          "indexed": true,
          "internalType": "bytes32",
          "name": "role",
          "type": "bytes32"
        },
        {
          "indexed": true,
          "internalType": "bytes32",
          "name": "previousAdminRole",
          "type": "bytes32"
        },
        {
          "indexed": true,
          "internalType": "bytes32",
          "name": "newAdminRole",
          "type": "bytes32"
        }
      ],
      "name": "RoleAdminChanged",
      "type": "event"
    },
    {
      "anonymous": false,
      "inputs": [
        {
          "indexed": true,
          "internalType": "bytes32",
          "name": "role",
          "type": "bytes32"
        },
        {
          "indexed": true,
          "internalType": "address",
          "name": "account",
          "type": "address"
        },
        {
          "indexed": true,
          "internalType": "address",
          "name": "sender",
          "type": "address"
        }
      ],
      "name": "RoleGranted",
      "type": "event"
    },
    {
      "anonymous": false,
      "inputs": [
        {
          "indexed": true,
          "internalType": "bytes32",
          "name": "role",
          "type": "bytes32"
        },
        {
          "indexed": true,
          "internalType": "address",
          "name": "account",
          "type": "address"
        },
        {
          "indexed": true,
          "internalType": "address",
          "name": "sender",
          "type": "address"
        }
      ],
      "name": "RoleRevoked",
      "type": "event"
    },
    {
      "anonymous": false,
      "inputs": [
        {
          "indexed": true,
          "internalType": "address",
          "name": "from",
          "type": "address"
        },
        {
          "indexed": true,
          "internalType": "address",
          "name": "to",
          "type": "address"
        },
        {
          "indexed": true,
          "internalType": "uint256",
          "name": "tokenId",
          "type": "uint256"
        }
      ],
      "name": "Transfer",
      "type": "event"
    },
    {
      "anonymous": false,
      "inputs": [
        {
          "indexed": false,
          "internalType": "address",
          "name": "account",
          "type": "address"
        }
      ],
      "name": "Unpaused",
      "type": "event"
    },
    {
      "inputs": [],
      "name": "DEFAULT_ADMIN_ROLE",
      "outputs": [
        {
          "internalType": "bytes32",
          "name": "",
          "type": "bytes32"
        }
      ],
      "stateMutability": "view",
      "type": "function"
    },
    {
      "inputs": [],
      "name": "MINTER_ROLE",
      "outputs": [
        {
          "internalType": "bytes32",
          "name": "",
          "type": "bytes32"
        }
      ],
      "stateMutability": "view",
      "type": "function"
    },
    {
      "inputs": [],
      "name": "PAUSER_ROLE",
      "outputs": [
        {
          "internalType": "bytes32",
          "name": "",
          "type": "bytes32"
        }
      ],
      "stateMutability": "view",
      "type": "function"
    },
    {
      "inputs": [
        {
          "internalType": "address",
          "name": "to",
          "type": "address"
        },
        {
          "internalType": "uint256",
          "name": "tokenId",
          "type": "uint256"
        }
      ],
      "name": "approve",
      "outputs": [],
      "stateMutability": "nonpayable",
      "type": "function"
    },
    {
      "inputs": [
        {
          "internalType": "address",
          "name": "owner",
          "type": "address"
        }
      ],
      "name": "balanceOf",
      "outputs": [
        {
          "internalType": "uint256",
          "name": "",
          "type": "uint256"
        }
      ],
      "stateMutability": "view",
      "type": "function"
    },
    {
      "inputs": [
        {
          "internalType": "uint256",
          "name": "tokenId",
          "type": "uint256"
        }
      ],
      "name": "burn",
      "outputs": [],
      "stateMutability": "nonpayable",
      "type": "function"
    },
    {
      "inputs": [
        {
          "internalType": "uint256",
          "name": "tokenId",
          "type": "uint256"
        }
      ],
      "name": "getApproved",
      "outputs": [
        {
          "internalType": "address",
          "name": "",
          "type": "address"
        }
      ],
      "stateMutability": "view",
      "type": "function"
    },
    {
      "inputs": [
        {
          "internalType": "bytes32",
          "name": "role",
          "type": "bytes32"
        }
      ],
      "name": "getRoleAdmin",
      "outputs": [
        {
          "internalType": "bytes32",
          "name": "",
          "type": "bytes32"
        }
      ],
      "stateMutability": "view",
      "type": "function"
    },
    {
      "inputs": [
        {
          "internalType": "bytes32",
          "name": "role",
          "type": "bytes32"
        },
        {
          "internalType": "address",
          "name": "account",
          "type": "address"
        }
      ],
      "name": "grantRole",
      "outputs": [],
      "stateMutability": "nonpayable",
      "type": "function"
    },
    {
      "inputs": [
        {
          "internalType": "bytes32",
          "name": "role",
          "type": "bytes32"
        },
        {
          "internalType": "address",
          "name": "account",
          "type": "address"
        }
      ],
      "name": "hasRole",
      "outputs": [
        {
          "internalType": "bool",
          "name": "",
          "type": "bool"
        }
      ],
      "stateMutability": "view",
      "type": "function"
    },
    {
      "inputs": [
        {
          "internalType": "address",
          "name": "owner",
          "type": "address"
        },
        {
          "internalType": "address",
          "name": "operator",
          "type": "address"
        }
      ],
      "name": "isApprovedForAll",
      "outputs": [
        {
          "internalType": "bool",
          "name": "",
          "type": "bool"
        }
      ],
      "stateMutability": "view",
      "type": "function"
    },
    {
      "inputs": [
        {
          "internalType": "string",
          "name": "_color",
          "type": "string"
        }
      ],
      "name": "mint",
      "outputs": [],
      "stateMutability": "nonpayable",
      "type": "function"
    },
    {
      "inputs": [],
      "name": "name",
      "outputs": [
        {
          "internalType": "string",
          "name": "",
          "type": "string"
        }
      ],
      "stateMutability": "view",
      "type": "function"
    },
    {
      "inputs": [
        {
          "internalType": "uint256",
          "name": "tokenId",
          "type": "uint256"
        }
      ],
      "name": "ownerOf",
      "outputs": [
        {
          "internalType": "address",
          "name": "",
          "type": "address"
        }
      ],
      "stateMutability": "view",
      "type": "function"
    },
    {
      "inputs": [],
      "name": "pause",
      "outputs": [],
      "stateMutability": "nonpayable",
      "type": "function"
    },
    {
      "inputs": [],
      "name": "paused",
      "outputs": [
        {
          "internalType": "bool",
          "name": "",
          "type": "bool"
        }
      ],
      "stateMutability": "view",
      "type": "function"
    },
    {
      "inputs": [
        {
          "internalType": "bytes32",
          "name": "role",
          "type": "bytes32"
        },
        {
          "internalType": "address",
          "name": "account",
          "type": "address"
        }
      ],
      "name": "renounceRole",
      "outputs": [],
      "stateMutability": "nonpayable",
      "type": "function"
    },
    {
      "inputs": [
        {
          "internalType": "bytes32",
          "name": "role",
          "type": "bytes32"
        },
        {
          "internalType": "address",
          "name": "account",
          "type": "address"
        }
      ],
      "name": "revokeRole",
      "outputs": [],
      "stateMutability": "nonpayable",
      "type": "function"
    },
    {
      "inputs": [
        {
          "internalType": "address",
          "name": "from",
          "type": "address"
        },
        {
          "internalType": "address",
          "name": "to",
          "type": "address"
        },
        {
          "internalType": "uint256",
          "name": "tokenId",
          "type": "uint256"
        }
      ],
      "name": "safeTransferFrom",
      "outputs": [],
      "stateMutability": "nonpayable",
      "type": "function"
    },
    {
      "inputs": [
        {
          "internalType": "address",
          "name": "from",
          "type": "address"
        },
        {
          "internalType": "address",
          "name": "to",
          "type": "address"
        },
        {
          "internalType": "uint256",
          "name": "tokenId",
          "type": "uint256"
        },
        {
          "internalType": "bytes",
          "name": "_data",
          "type": "bytes"
        }
      ],
      "name": "safeTransferFrom",
      "outputs": [],
      "stateMutability": "nonpayable",
      "type": "function"
    },
    {
      "inputs": [
        {
          "internalType": "address",
          "name": "operator",
          "type": "address"
        },
        {
          "internalType": "bool",
          "name": "approved",
          "type": "bool"
        }
      ],
      "name": "setApprovalForAll",
      "outputs": [],
      "stateMutability": "nonpayable",
      "type": "function"
    },
    {
      "inputs": [
        {
          "internalType": "bytes4",
          "name": "interfaceId",
          "type": "bytes4"
        }
      ],
      "name": "supportsInterface",
      "outputs": [
        {
          "internalType": "bool",
          "name": "",
          "type": "bool"
        }
      ],
      "stateMutability": "view",
      "type": "function"
    },
    {
      "inputs": [],
      "name": "symbol",
      "outputs": [
        {
          "internalType": "string",
          "name": "",
          "type": "string"
        }
      ],
      "stateMutability": "view",
      "type": "function"
    },
    {
      "inputs": [
        {
          "internalType": "uint256",
          "name": "index",
          "type": "uint256"
        }
      ],
      "name": "tokenByIndex",
      "outputs": [
        {
          "internalType": "uint256",
          "name": "",
          "type": "uint256"
        }
      ],
      "stateMutability": "view",
      "type": "function"
    },
    {
      "inputs": [
        {
          "internalType": "address",
          "name": "owner",
          "type": "address"
        },
        {
          "internalType": "uint256",
          "name": "index",
          "type": "uint256"
        }
      ],
      "name": "tokenOfOwnerByIndex",
      "outputs": [
        {
          "internalType": "uint256",
          "name": "",
          "type": "uint256"
        }
      ],
      "stateMutability": "view",
      "type": "function"
    },
    {
      "inputs": [
        {
          "internalType": "uint256",
          "name": "tokenId",
          "type": "uint256"
        }
      ],
      "name": "tokenURI",
      "outputs": [
        {
          "internalType": "string",
          "name": "",
          "type": "string"
        }
      ],
      "stateMutability": "view",
      "type": "function"
    },
    {
      "inputs": [],
      "name": "totalSupply",
      "outputs": [
        {
          "internalType": "uint256",
          "name": "",
          "type": "uint256"
        }
      ],
      "stateMutability": "view",
      "type": "function"
    },
    {
      "inputs": [
        {
          "internalType": "address",
          "name": "from",
          "type": "address"
        },
        {
          "internalType": "address",
          "name": "to",
          "type": "address"
        },
        {
          "internalType": "uint256",
          "name": "tokenId",
          "type": "uint256"
        }
      ],
      "name": "transferFrom",
      "outputs": [],
      "stateMutability": "nonpayable",
      "type": "function"
    },
    {
      "inputs": [],
      "name": "unpause",
      "outputs": [],
      "stateMutability": "nonpayable",
      "type": "function"
    }
  ],
  "bytecode": "0x60806040523480156200001157600080fd5b506040518060400160405280600581526020017f436f6c6f720000000000000000000000000000000000000000000000000000008152506040518060400160405280600581526020017f434f4c4f52000000000000000000000000000000000000000000000000000000815250816000908051906020019062000096929190620002c7565b508060019080519060200190620000af929190620002c7565b5050506000600b60006101000a81548160ff021916908315150217905550620000e26000801b336200014c60201b60201c565b620001147f65d7a28e3265b37a6474929f336521b332c1681b933f6cb9f3376673440d862a336200014c60201b60201c565b620001467f9f2df0fed2c77648de5860a4cc508cd0818c85b8b8a1ab4ceeef8d981c8956a6336200014c60201b60201c565b620003dc565b6200015e82826200016260201b60201c565b5050565b6200017482826200025460201b60201c565b62000250576001600c600084815260200190815260200160002060000160008373ffffffffffffffffffffffffffffffffffffffff1673ffffffffffffffffffffffffffffffffffffffff16815260200190815260200160002060006101000a81548160ff021916908315150217905550620001f5620002bf60201b60201c565b73ffffffffffffffffffffffffffffffffffffffff168173ffffffffffffffffffffffffffffffffffffffff16837f2f8788117e7eff1d82e926ec794901d17c78024a50270940304540a733656f0d60405160405180910390a45b5050565b6000600c600084815260200190815260200160002060000160008373ffffffffffffffffffffffffffffffffffffffff1673ffffffffffffffffffffffffffffffffffffffff16815260200190815260200160002060009054906101000a900460ff16905092915050565b600033905090565b828054620002d59062000377565b90600052602060002090601f016020900481019282620002f9576000855562000345565b82601f106200031457805160ff191683800117855562000345565b8280016001018555821562000345579182015b828111156200034457825182559160200191906001019062000327565b5b50905062000354919062000358565b5090565b5b808211156200037357600081600090555060010162000359565b5090565b600060028204905060018216806200039057607f821691505b60208210811415620003a757620003a6620003ad565b5b50919050565b7f4e487b7100000000000000000000000000000000000000000000000000000000600052602260045260246000fd5b614b8580620003ec6000396000f3fe608060405234801561001057600080fd5b50600436106101cf5760003560e01c80635c975abb11610104578063a22cb465116100a2578063d547741f11610071578063d547741f1461052c578063d85d3d2714610548578063e63ab1e914610564578063e985e9c514610582576101cf565b8063a22cb465146104a6578063b88d4fde146104c2578063c87b56dd146104de578063d53913931461050e576101cf565b80638456cb59116100de5780638456cb591461043057806391d148541461043a57806395d89b411461046a578063a217fddf14610488576101cf565b80635c975abb146103b25780636352211e146103d057806370a0823114610400576101cf565b80632f2ff15d116101715780633f4ba83a1161014b5780633f4ba83a1461034057806342842e0e1461034a57806342966c68146103665780634f6ccce714610382576101cf565b80632f2ff15d146102d85780632f745c59146102f457806336568abe14610324576101cf565b8063095ea7b3116101ad578063095ea7b31461025257806318160ddd1461026e57806323b872dd1461028c578063248a9ca3146102a8576101cf565b806301ffc9a7146101d457806306fdde0314610204578063081812fc14610222575b600080fd5b6101ee60048036038101906101e99190613543565b6105b2565b6040516101fb9190613b8e565b60405180910390f35b61020c6105c4565b6040516102199190613bc4565b60405180910390f35b61023c600480360381019061023791906135d6565b610656565b6040516102499190613b27565b60405180910390f35b61026c600480360381019061026791906134a2565b6106db565b005b6102766107f3565b6040516102839190613f26565b60405180910390f35b6102a660048036038101906102a1919061339c565b610800565b005b6102c260048036038101906102bd91906134de565b610860565b6040516102cf9190613ba9565b60405180910390f35b6102f260048036038101906102ed9190613507565b610880565b005b61030e600480360381019061030991906134a2565b6108a9565b60405161031b9190613f26565b60405180910390f35b61033e60048036038101906103399190613507565b61094e565b005b6103486109d1565b005b610364600480360381019061035f919061339c565b610a0e565b005b610380600480360381019061037b91906135d6565b610a2e565b005b61039c600480360381019061039791906135d6565b610a8a565b6040516103a99190613f26565b60405180910390f35b6103ba610b21565b6040516103c79190613b8e565b60405180910390f35b6103ea60048036038101906103e591906135d6565b610b38565b6040516103f79190613b27565b60405180910390f35b61041a60048036038101906104159190613337565b610bea565b6040516104279190613f26565b60405180910390f35b610438610ca2565b005b610454600480360381019061044f9190613507565b610cdf565b6040516104619190613b8e565b60405180910390f35b610472610d4a565b60405161047f9190613bc4565b60405180910390f35b610490610ddc565b60405161049d9190613ba9565b60405180910390f35b6104c060048036038101906104bb9190613466565b610de3565b005b6104dc60048036038101906104d791906133eb565b610f64565b005b6104f860048036038101906104f391906135d6565b610fc6565b6040516105059190613bc4565b60405180910390f35b610516610fd8565b6040516105239190613ba9565b60405180910390f35b61054660048036038101906105419190613507565b610ffc565b005b610562600480360381019061055d9190613595565b611025565b005b61056c6111ac565b6040516105799190613ba9565b60405180910390f35b61059c60048036038101906105979190613360565b6111d0565b6040516105a99190613b8e565b60405180910390f35b60006105bd82611264565b9050919050565b6060600080546105d39061420a565b80601f01602080910402602001604051908101604052809291908181526020018280546105ff9061420a565b801561064c5780601f106106215761010080835404028352916020019161064c565b820191906000526020600020905b81548152906001019060200180831161062f57829003601f168201915b5050505050905090565b6000610661826112de565b6106a0576040517f08c379a000000000000000000000000000000000000000000000000000000000815260040161069790613e06565b60405180910390fd5b6004600083815260200190815260200160002060009054906101000a900473ffffffffffffffffffffffffffffffffffffffff169050919050565b60006106e682610b38565b90508073ffffffffffffffffffffffffffffffffffffffff168373ffffffffffffffffffffffffffffffffffffffff161415610757576040517f08c379a000000000000000000000000000000000000000000000000000000000815260040161074e90613e66565b60405180910390fd5b8073ffffffffffffffffffffffffffffffffffffffff1661077661134a565b73ffffffffffffffffffffffffffffffffffffffff1614806107a557506107a48161079f61134a565b6111d0565b5b6107e4576040517f08c379a00000000000000000000000000000000000000000000000000000000081526004016107db90613d46565b60405180910390fd5b6107ee8383611352565b505050565b6000600880549050905090565b61081161080b61134a565b8261140b565b610850576040517f08c379a000000000000000000000000000000000000000000000000000000000815260040161084790613e86565b60405180910390fd5b61085b8383836114e9565b505050565b6000600c6000838152602001908152602001600020600101549050919050565b61088982610860565b61089a8161089561134a565b611745565b6108a483836117e2565b505050565b60006108b483610bea565b82106108f5576040517f08c379a00000000000000000000000000000000000000000000000000000000081526004016108ec90613c46565b60405180910390fd5b600660008473ffffffffffffffffffffffffffffffffffffffff1673ffffffffffffffffffffffffffffffffffffffff168152602001908152602001600020600083815260200190815260200160002054905092915050565b61095661134a565b73ffffffffffffffffffffffffffffffffffffffff168173ffffffffffffffffffffffffffffffffffffffff16146109c3576040517f08c379a00000000000000000000000000000000000000000000000000000000081526004016109ba90613f06565b60405180910390fd5b6109cd82826118c3565b5050565b6109fb7f65d7a28e3265b37a6474929f336521b332c1681b933f6cb9f3376673440d862a33610cdf565b610a0457600080fd5b610a0c6119a5565b565b610a2983838360405180602001604052806000815250610f64565b505050565b610a3f610a3961134a565b8261140b565b610a7e576040517f08c379a0000000000000000000000000000000000000000000000000000000008152600401610a7590613ec6565b60405180910390fd5b610a8781611a47565b50565b6000610a946107f3565b8210610ad5576040517f08c379a0000000000000000000000000000000000000000000000000000000008152600401610acc90613ea6565b60405180910390fd5b60088281548110610b0f577f4e487b7100000000000000000000000000000000000000000000000000000000600052603260045260246000fd5b90600052602060002001549050919050565b6000600b60009054906101000a900460ff16905090565b6000806002600084815260200190815260200160002060009054906101000a900473ffffffffffffffffffffffffffffffffffffffff169050600073ffffffffffffffffffffffffffffffffffffffff168173ffffffffffffffffffffffffffffffffffffffff161415610be1576040517f08c379a0000000000000000000000000000000000000000000000000000000008152600401610bd890613d86565b60405180910390fd5b80915050919050565b60008073ffffffffffffffffffffffffffffffffffffffff168273ffffffffffffffffffffffffffffffffffffffff161415610c5b576040517f08c379a0000000000000000000000000000000000000000000000000000000008152600401610c5290613d66565b60405180910390fd5b600360008373ffffffffffffffffffffffffffffffffffffffff1673ffffffffffffffffffffffffffffffffffffffff168152602001908152602001600020549050919050565b610ccc7f65d7a28e3265b37a6474929f336521b332c1681b933f6cb9f3376673440d862a33610cdf565b610cd557600080fd5b610cdd611a53565b565b6000600c600084815260200190815260200160002060000160008373ffffffffffffffffffffffffffffffffffffffff1673ffffffffffffffffffffffffffffffffffffffff16815260200190815260200160002060009054906101000a900460ff16905092915050565b606060018054610d599061420a565b80601f0160208091040260200160405190810160405280929190818152602001828054610d859061420a565b8015610dd25780601f10610da757610100808354040283529160200191610dd2565b820191906000526020600020905b815481529060010190602001808311610db557829003601f168201915b5050505050905090565b6000801b81565b610deb61134a565b73ffffffffffffffffffffffffffffffffffffffff168273ffffffffffffffffffffffffffffffffffffffff161415610e59576040517f08c379a0000000000000000000000000000000000000000000000000000000008152600401610e5090613cc6565b60405180910390fd5b8060056000610e6661134a565b73ffffffffffffffffffffffffffffffffffffffff1673ffffffffffffffffffffffffffffffffffffffff16815260200190815260200160002060008473ffffffffffffffffffffffffffffffffffffffff1673ffffffffffffffffffffffffffffffffffffffff16815260200190815260200160002060006101000a81548160ff0219169083151502179055508173ffffffffffffffffffffffffffffffffffffffff16610f1361134a565b73ffffffffffffffffffffffffffffffffffffffff167f17307eab39ab6107e8899845ad3d59bd9653f200f220920489ca2b5937696c3183604051610f589190613b8e565b60405180910390a35050565b610f75610f6f61134a565b8361140b565b610fb4576040517f08c379a0000000000000000000000000000000000000000000000000000000008152600401610fab90613e86565b60405180910390fd5b610fc084848484611af6565b50505050565b6060610fd182611b52565b9050919050565b7f9f2df0fed2c77648de5860a4cc508cd0818c85b8b8a1ab4ceeef8d981c8956a681565b61100582610860565b6110168161101161134a565b611745565b61102083836118c3565b505050565b61104f7f9f2df0fed2c77648de5860a4cc508cd0818c85b8b8a1ab4ceeef8d981c8956a633610cdf565b61108e576040517f08c379a000000000000000000000000000000000000000000000000000000000815260040161108590613ee6565b60405180910390fd5b61109781611ca4565b6110d6576040517f08c379a00000000000000000000000000000000000000000000000000000000081526004016110cd90613c06565b60405180910390fd5b600e816040516110e69190613ab2565b908152602001604051809103902060009054906101000a900460ff1615611142576040517f08c379a000000000000000000000000000000000000000000000000000000000815260040161113990613d26565b60405180910390fd5b61115533611150600d611f05565b611f13565b611168611162600d611f05565b82611f31565b611172600d611fa5565b6001600e826040516111849190613ab2565b908152602001604051809103902060006101000a81548160ff02191690831515021790555050565b7f65d7a28e3265b37a6474929f336521b332c1681b933f6cb9f3376673440d862a81565b6000600560008473ffffffffffffffffffffffffffffffffffffffff1673ffffffffffffffffffffffffffffffffffffffff16815260200190815260200160002060008373ffffffffffffffffffffffffffffffffffffffff1673ffffffffffffffffffffffffffffffffffffffff16815260200190815260200160002060009054906101000a900460ff16905092915050565b60007f7965db0b000000000000000000000000000000000000000000000000000000007bffffffffffffffffffffffffffffffffffffffffffffffffffffffff1916827bffffffffffffffffffffffffffffffffffffffffffffffffffffffff191614806112d757506112d682611fbb565b5b9050919050565b60008073ffffffffffffffffffffffffffffffffffffffff166002600084815260200190815260200160002060009054906101000a900473ffffffffffffffffffffffffffffffffffffffff1673ffffffffffffffffffffffffffffffffffffffff1614159050919050565b600033905090565b816004600083815260200190815260200160002060006101000a81548173ffffffffffffffffffffffffffffffffffffffff021916908373ffffffffffffffffffffffffffffffffffffffff160217905550808273ffffffffffffffffffffffffffffffffffffffff166113c583610b38565b73ffffffffffffffffffffffffffffffffffffffff167f8c5be1e5ebec7d5bd14f71427d1e84f3dd0314c0f7b2291e5b200ac8c7c3b92560405160405180910390a45050565b6000611416826112de565b611455576040517f08c379a000000000000000000000000000000000000000000000000000000000815260040161144c90613ce6565b60405180910390fd5b600061146083610b38565b90508073ffffffffffffffffffffffffffffffffffffffff168473ffffffffffffffffffffffffffffffffffffffff1614806114cf57508373ffffffffffffffffffffffffffffffffffffffff166114b784610656565b73ffffffffffffffffffffffffffffffffffffffff16145b806114e057506114df81856111d0565b5b91505092915050565b8273ffffffffffffffffffffffffffffffffffffffff1661150982610b38565b73ffffffffffffffffffffffffffffffffffffffff161461155f576040517f08c379a000000000000000000000000000000000000000000000000000000000815260040161155690613e26565b60405180910390fd5b600073ffffffffffffffffffffffffffffffffffffffff168273ffffffffffffffffffffffffffffffffffffffff1614156115cf576040517f08c379a00000000000000000000000000000000000000000000000000000000081526004016115c690613ca6565b60405180910390fd5b6115da838383612035565b6115e5600082611352565b6001600360008573ffffffffffffffffffffffffffffffffffffffff1673ffffffffffffffffffffffffffffffffffffffff168152602001908152602001600020600082825461163591906140ec565b925050819055506001600360008473ffffffffffffffffffffffffffffffffffffffff1673ffffffffffffffffffffffffffffffffffffffff168152602001908152602001600020600082825461168c919061400b565b92505081905550816002600083815260200190815260200160002060006101000a81548173ffffffffffffffffffffffffffffffffffffffff021916908373ffffffffffffffffffffffffffffffffffffffff160217905550808273ffffffffffffffffffffffffffffffffffffffff168473ffffffffffffffffffffffffffffffffffffffff167fddf252ad1be2c89b69c2b068fc378daa952ba7f163c4a11628f55a4df523b3ef60405160405180910390a4505050565b61174f8282610cdf565b6117de576117748173ffffffffffffffffffffffffffffffffffffffff16601461208d565b6117828360001c602061208d565b604051602001611793929190613aed565b6040516020818303038152906040526040517f08c379a00000000000000000000000000000000000000000000000000000000081526004016117d59190613bc4565b60405180910390fd5b5050565b6117ec8282610cdf565b6118bf576001600c600084815260200190815260200160002060000160008373ffffffffffffffffffffffffffffffffffffffff1673ffffffffffffffffffffffffffffffffffffffff16815260200190815260200160002060006101000a81548160ff02191690831515021790555061186461134a565b73ffffffffffffffffffffffffffffffffffffffff168173ffffffffffffffffffffffffffffffffffffffff16837f2f8788117e7eff1d82e926ec794901d17c78024a50270940304540a733656f0d60405160405180910390a45b5050565b6118cd8282610cdf565b156119a1576000600c600084815260200190815260200160002060000160008373ffffffffffffffffffffffffffffffffffffffff1673ffffffffffffffffffffffffffffffffffffffff16815260200190815260200160002060006101000a81548160ff02191690831515021790555061194661134a565b73ffffffffffffffffffffffffffffffffffffffff168173ffffffffffffffffffffffffffffffffffffffff16837ff6391f5c32d9c69d2a47ea670b442974b53935d1edc7fd64eb21e047a839171b60405160405180910390a45b5050565b6119ad610b21565b6119ec576040517f08c379a00000000000000000000000000000000000000000000000000000000081526004016119e390613c26565b60405180910390fd5b6000600b60006101000a81548160ff0219169083151502179055507f5db9ee0a495bf2e6ff9c91a7834c1ba4fdd244a5e8aa4e537bd38aeae4b073aa611a3061134a565b604051611a3d9190613b27565b60405180910390a1565b611a5081612387565b50565b611a5b610b21565b15611a9b576040517f08c379a0000000000000000000000000000000000000000000000000000000008152600401611a9290613d06565b60405180910390fd5b6001600b60006101000a81548160ff0219169083151502179055507f62e78cea01bee320cd4e420270b5ea74000d11b0c9f74754ebdbfc544b05a258611adf61134a565b604051611aec9190613b27565b60405180910390a1565b611b018484846114e9565b611b0d848484846123da565b611b4c576040517f08c379a0000000000000000000000000000000000000000000000000000000008152600401611b4390613c66565b60405180910390fd5b50505050565b6060611b5d826112de565b611b9c576040517f08c379a0000000000000000000000000000000000000000000000000000000008152600401611b9390613de6565b60405180910390fd5b6000600a60008481526020019081526020016000208054611bbc9061420a565b80601f0160208091040260200160405190810160405280929190818152602001828054611be89061420a565b8015611c355780601f10611c0a57610100808354040283529160200191611c35565b820191906000526020600020905b815481529060010190602001808311611c1857829003601f168201915b505050505090506000611c46612571565b9050600081511415611c5c578192505050611c9f565b600082511115611c91578082604051602001611c79929190613ac9565b60405160208183030381529060405292505050611c9f565b611c9a84612588565b925050505b919050565b60008082519050600781148015611d4057507f230000000000000000000000000000000000000000000000000000000000000083600081518110611d11577f4e487b7100000000000000000000000000000000000000000000000000000000600052603260045260246000fd5b602001015160f81c60f81b7effffffffffffffffffffffffffffffffffffffffffffffffffffffffffffff1916145b15611efa576000600190505b81811015611eef576000848281518110611d8f577f4e487b7100000000000000000000000000000000000000000000000000000000600052603260045260246000fd5b602001015160f81c60f81b90507f6100000000000000000000000000000000000000000000000000000000000000817effffffffffffffffffffffffffffffffffffffffffffffffffffffffffffff191610158015611e3057507f7a00000000000000000000000000000000000000000000000000000000000000817effffffffffffffffffffffffffffffffffffffffffffffffffffffffffffff191611155b80611ecb57507f3000000000000000000000000000000000000000000000000000000000000000817effffffffffffffffffffffffffffffffffffffffffffffffffffffffffffff191610158015611eca57507f3900000000000000000000000000000000000000000000000000000000000000817effffffffffffffffffffffffffffffffffffffffffffffffffffffffffffff191611155b5b611edb5760009350505050611f00565b508080611ee79061426d565b915050611d4c565b506001915050611f00565b60009150505b919050565b600081600001549050919050565b611f2d82826040518060200160405280600081525061262f565b5050565b611f3a826112de565b611f79576040517f08c379a0000000000000000000000000000000000000000000000000000000008152600401611f7090613da6565b60405180910390fd5b80600a60008481526020019081526020016000209080519060200190611fa0929190613106565b505050565b6001816000016000828254019250508190555050565b60007f780e9d63000000000000000000000000000000000000000000000000000000007bffffffffffffffffffffffffffffffffffffffffffffffffffffffff1916827bffffffffffffffffffffffffffffffffffffffffffffffffffffffff1916148061202e575061202d8261268a565b5b9050919050565b61203d610b21565b1561207d576040517f08c379a000000000000000000000000000000000000000000000000000000000815260040161207490613d06565b60405180910390fd5b61208883838361276c565b505050565b6060600060028360026120a09190614092565b6120aa919061400b565b67ffffffffffffffff8111156120e9577f4e487b7100000000000000000000000000000000000000000000000000000000600052604160045260246000fd5b6040519080825280601f01601f19166020018201604052801561211b5781602001600182028036833780820191505090505b5090507f300000000000000000000000000000000000000000000000000000000000000081600081518110612179577f4e487b7100000000000000000000000000000000000000000000000000000000600052603260045260246000fd5b60200101907effffffffffffffffffffffffffffffffffffffffffffffffffffffffffffff1916908160001a9053507f780000000000000000000000000000000000000000000000000000000000000081600181518110612203577f4e487b7100000000000000000000000000000000000000000000000000000000600052603260045260246000fd5b60200101907effffffffffffffffffffffffffffffffffffffffffffffffffffffffffffff1916908160001a905350600060018460026122439190614092565b61224d919061400b565b90505b6001811115612339577f3031323334353637383961626364656600000000000000000000000000000000600f8616601081106122b5577f4e487b7100000000000000000000000000000000000000000000000000000000600052603260045260246000fd5b1a60f81b8282815181106122f2577f4e487b7100000000000000000000000000000000000000000000000000000000600052603260045260246000fd5b60200101907effffffffffffffffffffffffffffffffffffffffffffffffffffffffffffff1916908160001a905350600485901c945080612332906141e0565b9050612250565b506000841461237d576040517f08c379a000000000000000000000000000000000000000000000000000000000815260040161237490613be6565b60405180910390fd5b8091505092915050565b61239081612880565b6000600a600083815260200190815260200160002080546123b09061420a565b9050146123d757600a600082815260200190815260200160002060006123d6919061318c565b5b50565b60006123fb8473ffffffffffffffffffffffffffffffffffffffff16612991565b15612564578373ffffffffffffffffffffffffffffffffffffffff1663150b7a0261242461134a565b8786866040518563ffffffff1660e01b81526004016124469493929190613b42565b602060405180830381600087803b15801561246057600080fd5b505af192505050801561249157506040513d601f19601f8201168201806040525081019061248e919061356c565b60015b612514573d80600081146124c1576040519150601f19603f3d011682016040523d82523d6000602084013e6124c6565b606091505b5060008151141561250c576040517f08c379a000000000000000000000000000000000000000000000000000000000815260040161250390613c66565b60405180910390fd5b805181602001fd5b63150b7a0260e01b7bffffffffffffffffffffffffffffffffffffffffffffffffffffffff1916817bffffffffffffffffffffffffffffffffffffffffffffffffffffffff191614915050612569565b600190505b949350505050565b606060405180602001604052806000815250905090565b6060612593826112de565b6125d2576040517f08c379a00000000000000000000000000000000000000000000000000000000081526004016125c990613e46565b60405180910390fd5b60006125dc612571565b905060008151116125fc5760405180602001604052806000815250612627565b80612606846129a4565b604051602001612617929190613ac9565b6040516020818303038152906040525b915050919050565b6126398383612b51565b61264660008484846123da565b612685576040517f08c379a000000000000000000000000000000000000000000000000000000000815260040161267c90613c66565b60405180910390fd5b505050565b60007f80ac58cd000000000000000000000000000000000000000000000000000000007bffffffffffffffffffffffffffffffffffffffffffffffffffffffff1916827bffffffffffffffffffffffffffffffffffffffffffffffffffffffff1916148061275557507f5b5e139f000000000000000000000000000000000000000000000000000000007bffffffffffffffffffffffffffffffffffffffffffffffffffffffff1916827bffffffffffffffffffffffffffffffffffffffffffffffffffffffff1916145b80612765575061276482612d1f565b5b9050919050565b612777838383612d89565b600073ffffffffffffffffffffffffffffffffffffffff168373ffffffffffffffffffffffffffffffffffffffff1614156127ba576127b581612d8e565b6127f9565b8173ffffffffffffffffffffffffffffffffffffffff168373ffffffffffffffffffffffffffffffffffffffff16146127f8576127f78382612dd7565b5b5b600073ffffffffffffffffffffffffffffffffffffffff168273ffffffffffffffffffffffffffffffffffffffff16141561283c5761283781612f44565b61287b565b8273ffffffffffffffffffffffffffffffffffffffff168273ffffffffffffffffffffffffffffffffffffffff161461287a576128798282613087565b5b5b505050565b600061288b82610b38565b905061289981600084612035565b6128a4600083611352565b6001600360008373ffffffffffffffffffffffffffffffffffffffff1673ffffffffffffffffffffffffffffffffffffffff16815260200190815260200160002060008282546128f491906140ec565b925050819055506002600083815260200190815260200160002060006101000a81549073ffffffffffffffffffffffffffffffffffffffff021916905581600073ffffffffffffffffffffffffffffffffffffffff168273ffffffffffffffffffffffffffffffffffffffff167fddf252ad1be2c89b69c2b068fc378daa952ba7f163c4a11628f55a4df523b3ef60405160405180910390a45050565b600080823b905060008111915050919050565b606060008214156129ec576040518060400160405280600181526020017f30000000000000000000000000000000000000000000000000000000000000008152509050612b4c565b600082905060005b60008214612a1e578080612a079061426d565b915050600a82612a179190614061565b91506129f4565b60008167ffffffffffffffff811115612a60577f4e487b7100000000000000000000000000000000000000000000000000000000600052604160045260246000fd5b6040519080825280601f01601f191660200182016040528015612a925781602001600182028036833780820191505090505b5090505b60008514612b4557600182612aab91906140ec565b9150600a85612aba91906142b6565b6030612ac6919061400b565b60f81b818381518110612b02577f4e487b7100000000000000000000000000000000000000000000000000000000600052603260045260246000fd5b60200101907effffffffffffffffffffffffffffffffffffffffffffffffffffffffffffff1916908160001a905350600a85612b3e9190614061565b9450612a96565b8093505050505b919050565b600073ffffffffffffffffffffffffffffffffffffffff168273ffffffffffffffffffffffffffffffffffffffff161415612bc1576040517f08c379a0000000000000000000000000000000000000000000000000000000008152600401612bb890613dc6565b60405180910390fd5b612bca816112de565b15612c0a576040517f08c379a0000000000000000000000000000000000000000000000000000000008152600401612c0190613c86565b60405180910390fd5b612c1660008383612035565b6001600360008473ffffffffffffffffffffffffffffffffffffffff1673ffffffffffffffffffffffffffffffffffffffff1681526020019081526020016000206000828254612c66919061400b565b92505081905550816002600083815260200190815260200160002060006101000a81548173ffffffffffffffffffffffffffffffffffffffff021916908373ffffffffffffffffffffffffffffffffffffffff160217905550808273ffffffffffffffffffffffffffffffffffffffff16600073ffffffffffffffffffffffffffffffffffffffff167fddf252ad1be2c89b69c2b068fc378daa952ba7f163c4a11628f55a4df523b3ef60405160405180910390a45050565b60007f01ffc9a7000000000000000000000000000000000000000000000000000000007bffffffffffffffffffffffffffffffffffffffffffffffffffffffff1916827bffffffffffffffffffffffffffffffffffffffffffffffffffffffff1916149050919050565b505050565b6008805490506009600083815260200190815260200160002081905550600881908060018154018082558091505060019003906000526020600020016000909190919091505550565b60006001612de484610bea565b612dee91906140ec565b9050600060076000848152602001908152602001600020549050818114612ed3576000600660008673ffffffffffffffffffffffffffffffffffffffff1673ffffffffffffffffffffffffffffffffffffffff168152602001908152602001600020600084815260200190815260200160002054905080600660008773ffffffffffffffffffffffffffffffffffffffff1673ffffffffffffffffffffffffffffffffffffffff168152602001908152602001600020600084815260200190815260200160002081905550816007600083815260200190815260200160002081905550505b6007600084815260200190815260200160002060009055600660008573ffffffffffffffffffffffffffffffffffffffff1673ffffffffffffffffffffffffffffffffffffffff16815260200190815260200160002060008381526020019081526020016000206000905550505050565b60006001600880549050612f5891906140ec565b9050600060096000848152602001908152602001600020549050600060088381548110612fae577f4e487b7100000000000000000000000000000000000000000000000000000000600052603260045260246000fd5b906000526020600020015490508060088381548110612ff6577f4e487b7100000000000000000000000000000000000000000000000000000000600052603260045260246000fd5b90600052602060002001819055508160096000838152602001908152602001600020819055506009600085815260200190815260200160002060009055600880548061306b577f4e487b7100000000000000000000000000000000000000000000000000000000600052603160045260246000fd5b6001900381819060005260206000200160009055905550505050565b600061309283610bea565b905081600660008573ffffffffffffffffffffffffffffffffffffffff1673ffffffffffffffffffffffffffffffffffffffff168152602001908152602001600020600083815260200190815260200160002081905550806007600084815260200190815260200160002081905550505050565b8280546131129061420a565b90600052602060002090601f016020900481019282613134576000855561317b565b82601f1061314d57805160ff191683800117855561317b565b8280016001018555821561317b579182015b8281111561317a57825182559160200191906001019061315f565b5b50905061318891906131cc565b5090565b5080546131989061420a565b6000825580601f106131aa57506131c9565b601f0160209004906000526020600020908101906131c891906131cc565b5b50565b5b808211156131e55760008160009055506001016131cd565b5090565b60006131fc6131f784613f66565b613f41565b90508281526020810184848401111561321457600080fd5b61321f84828561419e565b509392505050565b600061323a61323584613f97565b613f41565b90508281526020810184848401111561325257600080fd5b61325d84828561419e565b509392505050565b60008135905061327481614adc565b92915050565b60008135905061328981614af3565b92915050565b60008135905061329e81614b0a565b92915050565b6000813590506132b381614b21565b92915050565b6000815190506132c881614b21565b92915050565b600082601f8301126132df57600080fd5b81356132ef8482602086016131e9565b91505092915050565b600082601f83011261330957600080fd5b8135613319848260208601613227565b91505092915050565b60008135905061333181614b38565b92915050565b60006020828403121561334957600080fd5b600061335784828501613265565b91505092915050565b6000806040838503121561337357600080fd5b600061338185828601613265565b925050602061339285828601613265565b9150509250929050565b6000806000606084860312156133b157600080fd5b60006133bf86828701613265565b93505060206133d086828701613265565b92505060406133e186828701613322565b9150509250925092565b6000806000806080858703121561340157600080fd5b600061340f87828801613265565b945050602061342087828801613265565b935050604061343187828801613322565b925050606085013567ffffffffffffffff81111561344e57600080fd5b61345a878288016132ce565b91505092959194509250565b6000806040838503121561347957600080fd5b600061348785828601613265565b92505060206134988582860161327a565b9150509250929050565b600080604083850312156134b557600080fd5b60006134c385828601613265565b92505060206134d485828601613322565b9150509250929050565b6000602082840312156134f057600080fd5b60006134fe8482850161328f565b91505092915050565b6000806040838503121561351a57600080fd5b60006135288582860161328f565b925050602061353985828601613265565b9150509250929050565b60006020828403121561355557600080fd5b6000613563848285016132a4565b91505092915050565b60006020828403121561357e57600080fd5b600061358c848285016132b9565b91505092915050565b6000602082840312156135a757600080fd5b600082013567ffffffffffffffff8111156135c157600080fd5b6135cd848285016132f8565b91505092915050565b6000602082840312156135e857600080fd5b60006135f684828501613322565b91505092915050565b61360881614120565b82525050565b61361781614132565b82525050565b6136268161413e565b82525050565b600061363782613fc8565b6136418185613fde565b93506136518185602086016141ad565b61365a816143a3565b840191505092915050565b600061367082613fd3565b61367a8185613fef565b935061368a8185602086016141ad565b613693816143a3565b840191505092915050565b60006136a982613fd3565b6136b38185614000565b93506136c38185602086016141ad565b80840191505092915050565b60006136dc602083613fef565b91506136e7826143b4565b602082019050919050565b60006136ff603383613fef565b915061370a826143dd565b604082019050919050565b6000613722601483613fef565b915061372d8261442c565b602082019050919050565b6000613745602b83613fef565b915061375082614455565b604082019050919050565b6000613768603283613fef565b9150613773826144a4565b604082019050919050565b600061378b601c83613fef565b9150613796826144f3565b602082019050919050565b60006137ae602483613fef565b91506137b98261451c565b604082019050919050565b60006137d1601983613fef565b91506137dc8261456b565b602082019050919050565b60006137f4602c83613fef565b91506137ff82614594565b604082019050919050565b6000613817601083613fef565b9150613822826145e3565b602082019050919050565b600061383a601583613fef565b91506138458261460c565b602082019050919050565b600061385d603883613fef565b915061386882614635565b604082019050919050565b6000613880602a83613fef565b915061388b82614684565b604082019050919050565b60006138a3602983613fef565b91506138ae826146d3565b604082019050919050565b60006138c6602e83613fef565b91506138d182614722565b604082019050919050565b60006138e9602083613fef565b91506138f482614771565b602082019050919050565b600061390c603183613fef565b91506139178261479a565b604082019050919050565b600061392f602c83613fef565b915061393a826147e9565b604082019050919050565b6000613952602983613fef565b915061395d82614838565b604082019050919050565b6000613975602f83613fef565b915061398082614887565b604082019050919050565b6000613998602183613fef565b91506139a3826148d6565b604082019050919050565b60006139bb603183613fef565b91506139c682614925565b604082019050919050565b60006139de602c83613fef565b91506139e982614974565b604082019050919050565b6000613a01601783614000565b9150613a0c826149c3565b601782019050919050565b6000613a24603083613fef565b9150613a2f826149ec565b604082019050919050565b6000613a47601d83613fef565b9150613a5282614a3b565b602082019050919050565b6000613a6a601183614000565b9150613a7582614a64565b601182019050919050565b6000613a8d602f83613fef565b9150613a9882614a8d565b604082019050919050565b613aac81614194565b82525050565b6000613abe828461369e565b915081905092915050565b6000613ad5828561369e565b9150613ae1828461369e565b91508190509392505050565b6000613af8826139f4565b9150613b04828561369e565b9150613b0f82613a5d565b9150613b1b828461369e565b91508190509392505050565b6000602082019050613b3c60008301846135ff565b92915050565b6000608082019050613b5760008301876135ff565b613b6460208301866135ff565b613b716040830185613aa3565b8181036060830152613b83818461362c565b905095945050505050565b6000602082019050613ba3600083018461360e565b92915050565b6000602082019050613bbe600083018461361d565b92915050565b60006020820190508181036000830152613bde8184613665565b905092915050565b60006020820190508181036000830152613bff816136cf565b9050919050565b60006020820190508181036000830152613c1f816136f2565b9050919050565b60006020820190508181036000830152613c3f81613715565b9050919050565b60006020820190508181036000830152613c5f81613738565b9050919050565b60006020820190508181036000830152613c7f8161375b565b9050919050565b60006020820190508181036000830152613c9f8161377e565b9050919050565b60006020820190508181036000830152613cbf816137a1565b9050919050565b60006020820190508181036000830152613cdf816137c4565b9050919050565b60006020820190508181036000830152613cff816137e7565b9050919050565b60006020820190508181036000830152613d1f8161380a565b9050919050565b60006020820190508181036000830152613d3f8161382d565b9050919050565b60006020820190508181036000830152613d5f81613850565b9050919050565b60006020820190508181036000830152613d7f81613873565b9050919050565b60006020820190508181036000830152613d9f81613896565b9050919050565b60006020820190508181036000830152613dbf816138b9565b9050919050565b60006020820190508181036000830152613ddf816138dc565b9050919050565b60006020820190508181036000830152613dff816138ff565b9050919050565b60006020820190508181036000830152613e1f81613922565b9050919050565b60006020820190508181036000830152613e3f81613945565b9050919050565b60006020820190508181036000830152613e5f81613968565b9050919050565b60006020820190508181036000830152613e7f8161398b565b9050919050565b60006020820190508181036000830152613e9f816139ae565b9050919050565b60006020820190508181036000830152613ebf816139d1565b9050919050565b60006020820190508181036000830152613edf81613a17565b9050919050565b60006020820190508181036000830152613eff81613a3a565b9050919050565b60006020820190508181036000830152613f1f81613a80565b9050919050565b6000602082019050613f3b6000830184613aa3565b92915050565b6000613f4b613f5c565b9050613f57828261423c565b919050565b6000604051905090565b600067ffffffffffffffff821115613f8157613f80614374565b5b613f8a826143a3565b9050602081019050919050565b600067ffffffffffffffff821115613fb257613fb1614374565b5b613fbb826143a3565b9050602081019050919050565b600081519050919050565b600081519050919050565b600082825260208201905092915050565b600082825260208201905092915050565b600081905092915050565b600061401682614194565b915061402183614194565b9250827fffffffffffffffffffffffffffffffffffffffffffffffffffffffffffffffff03821115614056576140556142e7565b5b828201905092915050565b600061406c82614194565b915061407783614194565b92508261408757614086614316565b5b828204905092915050565b600061409d82614194565b91506140a883614194565b9250817fffffffffffffffffffffffffffffffffffffffffffffffffffffffffffffffff04831182151516156140e1576140e06142e7565b5b828202905092915050565b60006140f782614194565b915061410283614194565b925082821015614115576141146142e7565b5b828203905092915050565b600061412b82614174565b9050919050565b60008115159050919050565b6000819050919050565b60007fffffffff0000000000000000000000000000000000000000000000000000000082169050919050565b600073ffffffffffffffffffffffffffffffffffffffff82169050919050565b6000819050919050565b82818337600083830152505050565b60005b838110156141cb5780820151818401526020810190506141b0565b838111156141da576000848401525b50505050565b60006141eb82614194565b915060008214156141ff576141fe6142e7565b5b600182039050919050565b6000600282049050600182168061422257607f821691505b6020821081141561423657614235614345565b5b50919050565b614245826143a3565b810181811067ffffffffffffffff8211171561426457614263614374565b5b80604052505050565b600061427882614194565b91507fffffffffffffffffffffffffffffffffffffffffffffffffffffffffffffffff8214156142ab576142aa6142e7565b5b600182019050919050565b60006142c182614194565b91506142cc83614194565b9250826142dc576142db614316565b5b828206905092915050565b7f4e487b7100000000000000000000000000000000000000000000000000000000600052601160045260246000fd5b7f4e487b7100000000000000000000000000000000000000000000000000000000600052601260045260246000fd5b7f4e487b7100000000000000000000000000000000000000000000000000000000600052602260045260246000fd5b7f4e487b7100000000000000000000000000000000000000000000000000000000600052604160045260246000fd5b6000601f19601f8301169050919050565b7f537472696e67733a20686578206c656e67746820696e73756666696369656e74600082015250565b7f436f6c6f72206d757374206265206f6620666f726d617420222378787878787860008201527f207c207820696e207b612d7a2c20302d397d2200000000000000000000000000602082015250565b7f5061757361626c653a206e6f7420706175736564000000000000000000000000600082015250565b7f455243373231456e756d657261626c653a206f776e657220696e646578206f7560008201527f74206f6620626f756e6473000000000000000000000000000000000000000000602082015250565b7f4552433732313a207472616e7366657220746f206e6f6e20455243373231526560008201527f63656976657220696d706c656d656e7465720000000000000000000000000000602082015250565b7f4552433732313a20746f6b656e20616c7265616479206d696e74656400000000600082015250565b7f4552433732313a207472616e7366657220746f20746865207a65726f2061646460008201527f7265737300000000000000000000000000000000000000000000000000000000602082015250565b7f4552433732313a20617070726f766520746f2063616c6c657200000000000000600082015250565b7f4552433732313a206f70657261746f7220717565727920666f72206e6f6e657860008201527f697374656e7420746f6b656e0000000000000000000000000000000000000000602082015250565b7f5061757361626c653a2070617573656400000000000000000000000000000000600082015250565b7f436f6c6f7220616c7265616479206578697374732e0000000000000000000000600082015250565b7f4552433732313a20617070726f76652063616c6c6572206973206e6f74206f7760008201527f6e6572206e6f7220617070726f76656420666f7220616c6c0000000000000000602082015250565b7f4552433732313a2062616c616e636520717565727920666f7220746865207a6560008201527f726f206164647265737300000000000000000000000000000000000000000000602082015250565b7f4552433732313a206f776e657220717565727920666f72206e6f6e657869737460008201527f656e7420746f6b656e0000000000000000000000000000000000000000000000602082015250565b7f45524337323155524953746f726167653a2055524920736574206f66206e6f6e60008201527f6578697374656e7420746f6b656e000000000000000000000000000000000000602082015250565b7f4552433732313a206d696e7420746f20746865207a65726f2061646472657373600082015250565b7f45524337323155524953746f726167653a2055524920717565727920666f722060008201527f6e6f6e6578697374656e7420746f6b656e000000000000000000000000000000602082015250565b7f4552433732313a20617070726f76656420717565727920666f72206e6f6e657860008201527f697374656e7420746f6b656e0000000000000000000000000000000000000000602082015250565b7f4552433732313a207472616e73666572206f6620746f6b656e2074686174206960008201527f73206e6f74206f776e0000000000000000000000000000000000000000000000602082015250565b7f4552433732314d657461646174613a2055524920717565727920666f72206e6f60008201527f6e6578697374656e7420746f6b656e0000000000000000000000000000000000602082015250565b7f4552433732313a20617070726f76616c20746f2063757272656e74206f776e6560008201527f7200000000000000000000000000000000000000000000000000000000000000602082015250565b7f4552433732313a207472616e736665722063616c6c6572206973206e6f74206f60008201527f776e6572206e6f7220617070726f766564000000000000000000000000000000602082015250565b7f455243373231456e756d657261626c653a20676c6f62616c20696e646578206f60008201527f7574206f6620626f756e64730000000000000000000000000000000000000000602082015250565b7f416363657373436f6e74726f6c3a206163636f756e7420000000000000000000600082015250565b7f4552433732314275726e61626c653a2063616c6c6572206973206e6f74206f7760008201527f6e6572206e6f7220617070726f76656400000000000000000000000000000000602082015250565b7f53656e646572206d7573742068617665206d696e74657220726f6c652e000000600082015250565b7f206973206d697373696e6720726f6c6520000000000000000000000000000000600082015250565b7f416363657373436f6e74726f6c3a2063616e206f6e6c792072656e6f756e636560008201527f20726f6c657320666f722073656c660000000000000000000000000000000000602082015250565b614ae581614120565b8114614af057600080fd5b50565b614afc81614132565b8114614b0757600080fd5b50565b614b138161413e565b8114614b1e57600080fd5b50565b614b2a81614148565b8114614b3557600080fd5b50565b614b4181614194565b8114614b4c57600080fd5b5056fea2646970667358221220b90a7e606051e3a21b8c79bd2e4f24cea0d5076827eab7438f2be6cd8f40ce0e64736f6c63430008040033",
  "linkReferences": {},
  "deployedLinkReferences": {}
}